{
  "contractName": "ECMath",
  "abi": [
    {
      "constant": false,
      "inputs": [
        {
          "name": "qx",
          "type": "uint256"
        },
        {
          "name": "qy",
          "type": "uint256"
        },
        {
          "name": "e",
          "type": "uint256"
        },
        {
          "name": "r",
          "type": "uint256"
        },
        {
          "name": "s",
          "type": "uint256"
        }
      ],
      "name": "ecdsaverify",
      "outputs": [
        {
          "name": "",
          "type": "bool"
        }
      ],
      "payable": false,
      "stateMutability": "nonpayable",
      "type": "function"
    }
  ],
  "bytecode": "0x6060604052341561000f57600080fd5b6110f68061001e6000396000f300606060405260043610610041576000357c0100000000000000000000000000000000000000000000000000000000900463ffffffff168063d2689abc14610046575b600080fd5b610080600480803590602001909190803590602001909190803590602001909190803590602001909190803590602001909190505061009a565b604051808215151515815260200191505060405180910390f35b6000806000806100a861107b565b6100b061107b565b6100ba8b8b61021c565b15156100c9576000955061020e565b6100f3877fffffffff00000000ffffffffffffffffbce6faada7179e84f3b9cac2fc63255161030c565b94507fffffffff00000000ffffffffffffffffbce6faada7179e84f3b9cac2fc632551858a0993507fffffffff00000000ffffffffffffffffbce6faada7179e84f3b9cac2fc63255185890992506101a76060604051908101604052807f6b17d1f2e12c4247f8bce6e563a440f277037d812deb33a0f4a13945d898c29681526020017f4fe342e2fe1a7f9b8ee7eb4a7c0f9e162bce33576b315ececbb6406837bf51f5815260200160018152508561036f565b91506101cf6060604051908101604052808d81526020018c815260200160018152508461036f565b90506101db82826104ec565b90506101e681610aed565b60006002811015156101f457fe5b6020020151881415610209576001955061020e565b600095505b505050505095945050505050565b60007fffffffff00000001000000000000000000000000ffffffffffffffffffffffff807f5ac635d8aa3a93e7b3ebbd55769886bc651d06b0cc53b0f63bce3c3e27d2604b7fffffffff00000001000000000000000000000000ffffffffffffffffffffffff867fffffffff00000001000000000000000000000000fffffffffffffffffffffffc09087fffffffff00000001000000000000000000000000ffffffffffffffffffffffff808687098609087fffffffff00000001000000000000000000000000ffffffffffffffffffffffff83840914156103015760019050610306565b600090505b92915050565b60008060008060008060009450600193508692508791505b60008214151561036157818381151561033957fe5b0490508387888684098903870880955081965050508182820284038093508194505050610324565b849550505050505092915050565b61037761107b565b61037f61107b565b600082600060038110151561039057fe5b60200201818152505060008260016003811015156103aa57fe5b60200201818152505060008260026003811015156103c457fe5b602002018181525050600083148061040e575060008460006003811015156103e857fe5b602002015114801561040d5750600084600160038110151561040657fe5b6020020151145b5b1561041b578191506104e5565b83600060038110151561042a57fe5b602002015181600060038110151561043e57fe5b60200201818152505083600160038110151561045657fe5b602002015181600160038110151561046a57fe5b60200201818152505083600260038110151561048257fe5b602002015181600260038110151561049657fe5b6020020181815250505b6000831415156104e157600180841614156104c2576104bf81836104ec565b91505b6104cb81610c05565b90506002838115156104d957fe5b0492506104a0565b8191505b5092915050565b6104f461107b565b600080600080600080600088600060038110151561050e57fe5b60200201511480156105335750600088600160038110151561052c57fe5b6020020151145b80156105525750600088600260038110151561054b57fe5b6020020151145b1561055f57889650610ae1565b7fffffffff00000001000000000000000000000000ffffffffffffffffffffffff8089600260038110151561059057fe5b60200201518a60026003811015156105a457fe5b6020020151098a60006003811015156105b957fe5b60200201510995507fffffffff00000001000000000000000000000000ffffffffffffffffffffffff808a60026003811015156105f257fe5b60200201518b600260038110151561060657fe5b60200201510989600060038110151561061b57fe5b60200201510994507fffffffff00000001000000000000000000000000ffffffffffffffffffffffff8089600260038110151561065457fe5b60200201517fffffffff00000001000000000000000000000000ffffffffffffffffffffffff8b600260038110151561068957fe5b60200201518c600260038110151561069d57fe5b602002015109098a60016003811015156106b357fe5b60200201510993507fffffffff00000001000000000000000000000000ffffffffffffffffffffffff808a60026003811015156106ec57fe5b60200201517fffffffff00000001000000000000000000000000ffffffffffffffffffffffff8c600260038110151561072157fe5b60200201518d600260038110151561073557fe5b6020020151090989600160038110151561074b57fe5b6020020151099250848614156107ca5782841415156107ba57600187600060038110151561077557fe5b602002018181525050600187600160038110151561078f57fe5b60200201818152505060008760026003811015156107a957fe5b602002018181525050869650610ae1565b6107c389610c05565b9650610ae1565b7fffffffff00000001000000000000000000000000ffffffffffffffffffffffff867fffffffff00000001000000000000000000000000ffffffffffffffffffffffff03860891507fffffffff00000001000000000000000000000000ffffffffffffffffffffffff847fffffffff00000001000000000000000000000000ffffffffffffffffffffffff03840890507fffffffff00000001000000000000000000000000ffffffffffffffffffffffff807fffffffff00000001000000000000000000000000ffffffffffffffffffffffff8085860989096002097fffffffff00000001000000000000000000000000ffffffffffffffffffffffff037fffffffff00000001000000000000000000000000ffffffffffffffffffffffff807fffffffff00000001000000000000000000000000ffffffffffffffffffffffff86870986097fffffffff00000001000000000000000000000000ffffffffffffffffffffffff037fffffffff00000001000000000000000000000000ffffffffffffffffffffffff858609080887600060038110151561096757fe5b6020020181815250507fffffffff00000001000000000000000000000000ffffffffffffffffffffffff807fffffffff00000001000000000000000000000000ffffffffffffffffffffffff80858609850986097fffffffff00000001000000000000000000000000ffffffffffffffffffffffff037fffffffff00000001000000000000000000000000ffffffffffffffffffffffff808a6000600381101515610a0e57fe5b60200201517fffffffff00000001000000000000000000000000ffffffffffffffffffffffff037fffffffff00000001000000000000000000000000ffffffffffffffffffffffff808889098c0908840908876001600381101515610a6f57fe5b6020020181815250507fffffffff00000001000000000000000000000000ffffffffffffffffffffffff80896002600381101515610aa957fe5b60200201518b6002600381101515610abd57fe5b6020020151098309876002600381101515610ad457fe5b6020020181815250508696505b50505050505092915050565b610af56110a3565b600080610b35846002600381101515610b0a57fe5b60200201517fffffffff00000001000000000000000000000000ffffffffffffffffffffffff61030c565b91507fffffffff00000001000000000000000000000000ffffffffffffffffffffffff82830990507fffffffff00000001000000000000000000000000ffffffffffffffffffffffff81856000600381101515610b8e57fe5b602002015109836000600281101515610ba357fe5b6020020181815250507fffffffff00000001000000000000000000000000ffffffffffffffffffffffff80828409856001600381101515610be057fe5b602002015109836001600281101515610bf557fe5b6020020181815250505050919050565b610c0d61107b565b6000806000846001600381101515610c2157fe5b60200201511415610c82576001836000600381101515610c3d57fe5b6020020181815250506001836001600381101515610c5757fe5b6020020181815250506000836002600381101515610c7157fe5b602002018181525050829250611074565b7fffffffff00000001000000000000000000000000ffffffffffffffffffffffff807fffffffff00000001000000000000000000000000ffffffffffffffffffffffff866001600381101515610cd457fe5b6020020151876001600381101515610ce857fe5b602002015109866000600381101515610cfd57fe5b60200201510960040990507fffffffff00000001000000000000000000000000ffffffffffffffffffffffff807fffffffff00000001000000000000000000000000ffffffffffffffffffffffff80876002600381101515610d5b57fe5b6020020151886002600381101515610d6f57fe5b6020020151097fffffffff00000001000000000000000000000000ffffffffffffffffffffffff886002600381101515610da557fe5b6020020151896002600381101515610db957fe5b602002015109097fffffffff00000001000000000000000000000000fffffffffffffffffffffffc097fffffffff00000001000000000000000000000000ffffffffffffffffffffffff80876000600381101515610e1357fe5b6020020151886000600381101515610e2757fe5b6020020151096003090891507fffffffff00000001000000000000000000000000ffffffffffffffffffffffff80600283097fffffffff00000001000000000000000000000000ffffffffffffffffffffffff037fffffffff00000001000000000000000000000000ffffffffffffffffffffffff84850908836000600381101515610eaf57fe5b6020020181815250507fffffffff00000001000000000000000000000000ffffffffffffffffffffffff807fffffffff00000001000000000000000000000000ffffffffffffffffffffffff80876001600381101515610f0b57fe5b6020020151886001600381101515610f1f57fe5b6020020151097fffffffff00000001000000000000000000000000ffffffffffffffffffffffff886001600381101515610f5557fe5b6020020151896001600381101515610f6957fe5b602002015109096008097fffffffff00000001000000000000000000000000ffffffffffffffffffffffff037fffffffff00000001000000000000000000000000ffffffffffffffffffffffff80866000600381101515610fc657fe5b60200201517fffffffff00000001000000000000000000000000ffffffffffffffffffffffff03850885090883600160038110151561100157fe5b6020020181815250507fffffffff00000001000000000000000000000000ffffffffffffffffffffffff8085600260038110151561103b57fe5b602002015186600160038110151561104f57fe5b60200201510960020983600260038110151561106757fe5b6020020181815250508292505b5050919050565b6060604051908101604052806003905b600081526020019060019003908161108b5790505090565b60408051908101604052806002905b60008152602001906001900390816110b257905050905600a165627a7a7230582024c8ef1132d3b84a34d4af5f6064b3b2076e4a9cd92e8927c84cfcfeadfc3de20029",
  "source": "pragma solidity ^0.4.8;\n\n// Library for secp256r1\nlibrary ECMath {\n\n  //curve parameters secp256r1\n  uint256 constant a=115792089210356248762697446949407573530086143415290314195533631308867097853948;\n  uint256 constant b=41058363725152142129326129780047268409114441015993725554835256314039467401291;\n  uint256 constant gx=48439561293906451759052585252797914202762949526041747995844080717082404635286;\n  uint256 constant gy=36134250956749795798585127919587881956611106672985015071877198253568414405109;\n  uint256 constant p=115792089210356248762697446949407573530086143415290314195533631308867097853951;\n  uint256 constant n=115792089210356248762697446949407573529996955224135760342422259061068512044369;\n  uint256 constant h=1;\n\n  /*\n  //signature parameters\n  //04 uncompressed public key, qx,qy exactly 128bit each\n  //signature: 30 indicates start, 44 indicates total length of signature\n  //02 indicates start of s; 20/21 length\n  //02 indicates start of r; 20/21 indicates length\n  //e sha256(message)\n  uint256 e=0x9834876dcfb05cb167a5c24953eba58c4ac89b1adf57f28f2f9d09af107ee8f0; //message\n  uint256 r=0x6933a06a9b5e654fad879364b58b819feb491810efcb90120423d5e827af4a74; //signature\n  uint256 s=0x0f9e643bc2b5124759040955312b6c0227ff21058d3f5bf1266741cc72a3a6ead; //signature\n  uint256 qx=0xb7435ff8eab13f5ddfd96a56f7cd23aa7d1d9fc6f5938b3f8f707b1e990be509; //public key x-coordinate signer\n  uint256 qy=0xa2e0d3cf29f61d6e49247f48f546b9569c5d7fba10a05bc25b7949db4a74e6d4; //public key y-coordinate signer\n\n  //Toy example\n  //curve parameters secp256r1\n  uint256 constant a=2;\n  uint256 constant b=2;\n  uint256 constant gx=5;\n  uint256 constant gy=1;\n  uint256 constant p=17;\n  uint256 constant n=19;\n  uint256 constant h=01;\n\n  //signature parameters\n  uint256 e=8; //message\n  uint256 r=10; //signature\n  uint256 s=13; //signature\n  uint256 qx=9; //public key x-coordinate signer\n  uint256 qy=16; //public key y-coordinate signer\n\n\n  function testsignature() returns(bool) {\n    return ecdsaverify(qx,qy,e,r,s);\n  }\n  */\n\n  function ecdsaverify(uint256 qx, uint256 qy, uint256 e, uint256 r, uint256 s) returns (bool) {\n\n    if (!isPoint(qx,qy)) {\n      return false;\n    }\n\n    //temporary variables\n    uint256 w;\n    uint256 u1;\n    uint256 u2;\n    uint256[3] memory T1;\n    uint256[3] memory T2;\n    w=invmod(s,n);\n    u1=mulmod(e,w,n);\n    u2=mulmod(r,w,n);\n    T1=ecmul([gx,gy,1],u1);\n    T2=ecmul([qx,qy,1],u2);\n    T2=ecadd(T1,T2);\n    if (r==JtoA(T2)[0]) {\n      return true;\n    }\n    return false;\n  }\n\n  //function checks if point (x1,y1) is on curve, x1 and y1 affine coordinate parameters\n  function isPoint(uint256 x1, uint256 y1) private returns (bool) {\n    //point fulfills y^2=x^3+ax+b?\n    if (mulmod(y1,y1,p) == addmod(mulmod(x1,mulmod(x1,x1,p),p),addmod(mulmod(a,x1,p),b,p),p)) {\n      return (true);\n    }\n    else {\n      return (false);\n    }\n  }\n\n  // point addition for elliptic curve in jacobian coordinates\n  // formula from https://en.wikibooks.org/wiki/Cryptography/Prime_Curve/Jacobian_Coordinates\n  function ecadd(uint256[3] P, uint256[3] Q) private returns (uint256[3] R) {\n\n    uint256 u1;\n    uint256 u2;\n    uint256 s1;\n    uint256 s2;\n\n    if (Q[0]==0 && Q[1]==0 && Q[2]==0) {\n      return P;\n    }\n\n    u1 = mulmod(P[0],mulmod(Q[2],Q[2],p),p);\n    u2 = mulmod(Q[0],mulmod(P[2],P[2],p),p);\n    s1 = mulmod(P[1],mulmod(mulmod(Q[2],Q[2],p),Q[2],p),p);\n    s2 = mulmod(Q[1],mulmod(mulmod(P[2],P[2],p),P[2],p),p);\n\n    if (u1==u2) {\n      if (s1 != s2) {\n        R[0]=1;\n        R[1]=1;\n        R[2]=0;\n        return R;\n      }\n      else {\n        return ecdouble(P);\n      }\n    }\n\n    uint256 h;\n    uint256 r;\n\n    h = addmod(u2,(p-u1),p);\n    r = addmod(s2,(p-s1),p);\n\n    R[0] = addmod(addmod(mulmod(r,r,p),(p-mulmod(h,mulmod(h,h,p),p)),p),(p-mulmod(2,mulmod(u1,mulmod(h,h,p),p),p)),p);\n    R[1] = addmod(mulmod(r,addmod(mulmod(u1,mulmod(h,h,p),p),(p-R[0]),p),p),(p-mulmod(s1,mulmod(h,mulmod(h,h,p),p),p)),p);\n    R[2] = mulmod(h,mulmod(P[2],Q[2],p),p);\n\n    return (R);\n  }\n\n  //point doubling for elliptic curve in jacobian coordinates\n  //formula from https://en.wikibooks.org/wiki/Cryptography/Prime_Curve/Jacobian_Coordinates\n  function ecdouble(uint256[3] P) private returns(uint256[3] R){\n\n    //return point at infinity\n    if (P[1]==0) {\n      R[0]=1;\n      R[1]=1;\n      R[2]=0;\n      return (R);\n    }\n\n    uint256 m;\n    uint256 s;\n\n    s = mulmod(4,mulmod(P[0],mulmod(P[1],P[1],p),p),p);\n    m = addmod(mulmod(3,mulmod(P[0],P[0],p),p),mulmod(a,mulmod(mulmod(P[2],P[2],p),mulmod(P[2],P[2],p),p),p),p);\n    R[0] = addmod(mulmod(m,m,p),(p-mulmod(s,2,p)),p);\n    R[1] = addmod(mulmod(m,addmod(s,(p-R[0]),p),p),(p-mulmod(8,mulmod(mulmod(P[1],P[1],p),mulmod(P[1],P[1],p),p),p)),p);\n    R[2] = mulmod(2,mulmod(P[1],P[2],p),p);\n\n    return (R);\n\n  }\n\n  // function for elliptic curve multiplication in jacobian coordinates using Double-and-add method\n  function ecmul(uint256[3] P, uint256 d) private returns (uint256[3] R) {\n\n    R[0]=0;\n    R[1]=0;\n    R[2]=0;\n\n    //return (0,0) if d=0 or (x1,y1)=(0,0)\n    if (d == 0 || ((P[0]==0) && (P[1]==0)) ) {\n      return (R);\n    }\n    uint256[3] memory T;\n    T[0]=P[0]; //x-coordinate temp\n    T[1]=P[1]; //y-coordinate temp\n    T[2]=P[2]; //z-coordiante temp\n\n    while (d != 0) {\n      if ((d & 1) == 1) {  //if last bit is 1 add T to result\n        R = ecadd(T,R);\n      }\n      T = ecdouble(T);    //double temporary coordinates\n      d=d/2;              //\"cut off\" last bit\n    }\n\n    return R;\n  }\n\n  //jacobian to affine coordinates transfomration\n  function JtoA(uint256[3] P) private returns (uint256[2] Pnew) {\n    uint zInv = invmod(P[2],p);\n    uint zInv2 = mulmod(zInv, zInv, p);\n    Pnew[0] = mulmod(P[0], zInv2, p);\n    Pnew[1] = mulmod(P[1], mulmod(zInv,zInv2,p), p);\n  }\n\n  //computing inverse by using euclidean algorithm\n  function invmod(uint256 a, uint p) private returns(uint256 invA) {\n    uint256 t=0;\n    uint256 newT=1;\n    uint256 r=p;\n    uint256 newR=a;\n    uint256 q;\n    while (newR != 0) {\n      q = r / newR;\n\n      (t, newT) = (newT, addmod(t , (p - mulmod(q, newT,p)) , p));\n      (r, newR) = (newR, r - q * newR );\n    }\n\n    return t;\n  }\n\n}\n",
  "sourcePath": "/Users/nijatbakhshaliyev/Desktop/ins_dapp_new/Insurance-With-Smart-Contracts/installed_contracts/ECMath.sol",
  "compiler": {
    "name": "solc",
    "version": "0.4.19+commit.c4cbbb05.Emscripten.clang"
  },
  "schemaVersion": "1.0.1",
  "updatedAt": "2018-05-14T15:43:37.837Z"
}