{
  "contractName": "Insurance",
  "abi": [
    {
      "constant": true,
      "inputs": [
        {
          "name": "",
          "type": "uint256"
        }
      ],
      "name": "allInsuranceCovers",
      "outputs": [
        {
          "name": "insuranceID",
          "type": "uint256"
        },
        {
          "name": "proposer",
          "type": "address"
        },
        {
          "name": "numberOfProviders",
          "type": "uint256"
        },
        {
          "name": "totalCoverAmount",
          "type": "uint256"
        },
        {
          "name": "currentFundedCover",
          "type": "uint256"
        },
        {
          "name": "premiumAmount",
          "type": "uint256"
        },
        {
          "name": "flightID",
          "type": "int256"
        },
        {
          "name": "filled",
          "type": "bool"
        },
        {
          "name": "deleted",
          "type": "bool"
        }
      ],
      "payable": false,
      "stateMutability": "view",
      "type": "function"
    },
    {
      "constant": true,
      "inputs": [],
      "name": "master",
      "outputs": [
        {
          "name": "",
          "type": "address"
        }
      ],
      "payable": false,
      "stateMutability": "view",
      "type": "function"
    },
    {
      "inputs": [],
      "payable": false,
      "stateMutability": "nonpayable",
      "type": "constructor"
    },
    {
      "anonymous": false,
      "inputs": [
        {
          "indexed": false,
          "name": "insuranceID",
          "type": "uint256"
        }
      ],
      "name": "InsuranceCoverChange",
      "type": "event"
    },
    {
      "anonymous": false,
      "inputs": [
        {
          "indexed": false,
          "name": "status",
          "type": "int256"
        }
      ],
      "name": "Status",
      "type": "event"
    },
    {
      "anonymous": false,
      "inputs": [
        {
          "indexed": false,
          "name": "status",
          "type": "string"
        }
      ],
      "name": "StatusStr",
      "type": "event"
    },
    {
      "constant": false,
      "inputs": [
        {
          "name": "_hex_proof",
          "type": "bytes"
        },
        {
          "name": "_totalCoverAmount",
          "type": "uint256"
        }
      ],
      "name": "proposeInsuranceCover",
      "outputs": [],
      "payable": true,
      "stateMutability": "payable",
      "type": "function"
    },
    {
      "constant": false,
      "inputs": [
        {
          "name": "_insuranceID",
          "type": "uint256"
        }
      ],
      "name": "acceptContract",
      "outputs": [],
      "payable": true,
      "stateMutability": "payable",
      "type": "function"
    },
    {
      "constant": false,
      "inputs": [
        {
          "name": "_insuranceID",
          "type": "uint256"
        },
        {
          "name": "_hex_proof",
          "type": "bytes"
        }
      ],
      "name": "resolveContract",
      "outputs": [],
      "payable": true,
      "stateMutability": "payable",
      "type": "function"
    },
    {
      "constant": false,
      "inputs": [
        {
          "name": "_insuranceID",
          "type": "uint256"
        }
      ],
      "name": "cancelInsuranceContract",
      "outputs": [],
      "payable": true,
      "stateMutability": "payable",
      "type": "function"
    },
    {
      "constant": true,
      "inputs": [
        {
          "name": "_insuranceID",
          "type": "uint256"
        }
      ],
      "name": "getInsuranceContract",
      "outputs": [
        {
          "name": "",
          "type": "address"
        },
        {
          "name": "",
          "type": "uint256"
        },
        {
          "name": "",
          "type": "uint256"
        },
        {
          "name": "",
          "type": "uint256"
        },
        {
          "name": "",
          "type": "int256"
        }
      ],
      "payable": false,
      "stateMutability": "view",
      "type": "function"
    },
    {
      "constant": true,
      "inputs": [],
      "name": "getInsuranceContracts",
      "outputs": [
        {
          "name": "",
          "type": "uint256[]"
        }
      ],
      "payable": false,
      "stateMutability": "view",
      "type": "function"
    },
    {
      "constant": true,
      "inputs": [],
      "name": "getNumberOfInsuranceContracts",
      "outputs": [
        {
          "name": "",
          "type": "uint256"
        }
      ],
      "payable": false,
      "stateMutability": "view",
      "type": "function"
    },
    {
      "constant": true,
      "inputs": [
        {
          "name": "_insuranceID",
          "type": "uint256"
        }
      ],
      "name": "getInsuranceContributors",
      "outputs": [
        {
          "name": "",
          "type": "address[]"
        }
      ],
      "payable": false,
      "stateMutability": "view",
      "type": "function"
    },
    {
      "constant": true,
      "inputs": [
        {
          "name": "_insuranceID",
          "type": "uint256"
        }
      ],
      "name": "getInsuranceContributions",
      "outputs": [
        {
          "name": "",
          "type": "uint256[]"
        }
      ],
      "payable": false,
      "stateMutability": "view",
      "type": "function"
    }
  ],
  "bytecode": "0x6060604052341561000f57600080fd5b336000806101000a81548173ffffffffffffffffffffffffffffffffffffffff021916908373ffffffffffffffffffffffffffffffffffffffff160217905550600060018190555061443c806100666000396000f3006060604052600436106100af576000357c0100000000000000000000000000000000000000000000000000000000900463ffffffff16806307d54bb0146100b457806336b49b0c1461013357806355a8b40c146101d65780635cc6a13e146102315780636a31a4ea146102a95780637c6dfd93146102c15780638aaf11d91461031c5780639a115c0414610394578063e33e59d8146103ac578063ee97f7f314610416578063f1d749801461046b575b600080fd5b34156100bf57600080fd5b6100d56004808035906020019091905050610494565b604051808673ffffffffffffffffffffffffffffffffffffffff1673ffffffffffffffffffffffffffffffffffffffff1681526020018581526020018481526020018381526020018281526020019550505050505060405180910390f35b341561013e57600080fd5b6101546004808035906020019091905050610542565b604051808a81526020018973ffffffffffffffffffffffffffffffffffffffff1673ffffffffffffffffffffffffffffffffffffffff1681526020018881526020018781526020018681526020018581526020018481526020018315151515815260200182151515158152602001995050505050505050505060405180910390f35b61022f600480803590602001909190803590602001908201803590602001908080601f016020809104026020016040519081016040528093929190818152602001838380828437820191505050505050919050506105ca565b005b341561023c57600080fd5b6102526004808035906020019091905050610623565b6040518080602001828103825283818151815260200191508051906020019060200280838360005b8381101561029557808201518184015260208101905061027a565b505050509050019250505060405180910390f35b6102bf60048080359060200190919050506106cd565b005b61031a600480803590602001908201803590602001908080601f0160208091040260200160405190810160405280939291908181526020018383808284378201915050505050509190803590602001909190505061098d565b005b341561032757600080fd5b61033d6004808035906020019091905050610e4c565b6040518080602001828103825283818151815260200191508051906020019060200280838360005b83811015610380578082015181840152602081019050610365565b505050509050019250505060405180910390f35b6103aa6004808035906020019091905050610ec0565b005b34156103b757600080fd5b6103bf6110e7565b6040518080602001828103825283818151815260200191508051906020019060200280838360005b838110156104025780820151818401526020810190506103e7565b505050509050019250505060405180910390f35b341561042157600080fd5b610429611145565b604051808273ffffffffffffffffffffffffffffffffffffffff1673ffffffffffffffffffffffffffffffffffffffff16815260200191505060405180910390f35b341561047657600080fd5b61047e61116a565b6040518082815260200191505060405180910390f35b60008060008060006003600087815260200190815260200160002060010160009054906101000a900473ffffffffffffffffffffffffffffffffffffffff1660036000888152602001908152602001600020600301546003600089815260200190815260200160002060040154600360008a815260200190815260200160002060050154600360008b8152602001908152602001600020600601549450945094509450945091939590929450565b60036020528060005260406000206000915090508060000154908060010160009054906101000a900473ffffffffffffffffffffffffffffffffffffffff16908060020154908060030154908060040154908060050154908060060154908060070160009054906101000a900460ff16908060070160019054906101000a900460ff16905089565b6105d261409e565b6105da6140b2565b60008060006105e886611177565b94506105f6856101f461129d565b80945081965082955050505061060c8585612073565b905061061885856120da565b905050505050505050565b61062b6140c6565b600360008381526020019081526020016000206008018054806020026020016040519081016040528092919081815260200182805480156106c157602002820191906000526020600020905b8160009054906101000a900473ffffffffffffffffffffffffffffffffffffffff1673ffffffffffffffffffffffffffffffffffffffff1681526020019060010190808311610677575b50505050509050919050565b60003373ffffffffffffffffffffffffffffffffffffffff166003600084815260200190815260200160002060010160009054906101000a900473ffffffffffffffffffffffffffffffffffffffff1673ffffffffffffffffffffffffffffffffffffffff1614151561073f57600080fd5b600015156003600084815260200190815260200160002060070160009054906101000a900460ff16151514151561077557600080fd5b600015156003600084815260200190815260200160002060070160019054906101000a900460ff1615151415156107ab57600080fd5b60016003600084815260200190815260200160002060070160016101000a81548160ff0219169083151502179055507fa18e49c197ba724ba17a696b907919f85fdba8ff4e2de233c12e8be4b909e908826040518082815260200191505060405180910390a16003600083815260200190815260200160002060010160009054906101000a900473ffffffffffffffffffffffffffffffffffffffff1673ffffffffffffffffffffffffffffffffffffffff166108fc60036000858152602001908152602001600020600501549081150290604051600060405180830381858888f19350505050151561089d57600080fd5b600090505b60036000838152602001908152602001600020600201548110156109895760036000838152602001908152602001600020600801818154811015156108e357fe5b906000526020600020900160009054906101000a900473ffffffffffffffffffffffffffffffffffffffff1673ffffffffffffffffffffffffffffffffffffffff166108fc600360008581526020019081526020016000206009018381548110151561094b57fe5b9060005260206000209001549081150290604051600060405180830381858888f19350505050151561097c57600080fd5b80806001019150506108a2565b5050565b61099561409e565b61099d6140b2565b6000806109a861409e565b6109b061409e565b6000806109bb6140da565b6000341115156109ca57600080fd5b6109d38b61242f565b15156109de57600080fd5b6109e78b611177565b98507f2334f7da83516c4bda5e15e59702114b7bda23288d9ff19698d624307d5555e2896040518080602001828103825283818151815260200191508051906020019080838360005b83811015610a4b578082015181840152602081019050610a30565b50505050905090810190601f168015610a785780820380516001836020036101000a031916815260200191505b509250505060405180910390a1610a918961012c61129d565b809850819a50829950505050610ae0898960e3815181101515610ab057fe5b90602001906020020151602001518a60e3815181101515610acd57fe5b9060200190602002015160600151612597565b94507f2334f7da83516c4bda5e15e59702114b7bda23288d9ff19698d624307d5555e2856040518080602001828103825283818151815260200191508051906020019080838360005b83811015610b44578082015181840152602081019050610b29565b50505050905090810190601f168015610b715780820380516001836020036101000a031916815260200191505b509250505060405180910390a1610bbd856040805190810160405280600181526020017f530000000000000000000000000000000000000000000000000000000000000081525061269a565b1515610bc857600080fd5b610c0b89896006815181101515610bdb57fe5b90602001906020020151602001518a6006815181101515610bf857fe5b9060200190602002015160600151612597565b9350610c1684612773565b92506103e8600160008154809291906001019190505501915060028054806001018281610c43919061415b565b9160005260206000209001600084909190915055508181600001818152505033816020019073ffffffffffffffffffffffffffffffffffffffff16908173ffffffffffffffffffffffffffffffffffffffff16815250506000816040018181525050898160600181815250506000816080018181525050348160a0018181525050828160c001818152505060008160e001901515908115158152505060008161010001901515908115158152505080600360008481526020019081526020016000206000820151816000015560208201518160010160006101000a81548173ffffffffffffffffffffffffffffffffffffffff021916908373ffffffffffffffffffffffffffffffffffffffff16021790555060408201518160020155606082015181600301556080820151816004015560a0820151816005015560c0820151816006015560e08201518160070160006101000a81548160ff0219169083151502179055506101008201518160070160016101000a81548160ff021916908315150217905550610120820151816008019080519060200190610de6929190614187565b50610140820151816009019080519060200190610e04929190614211565b509050507fa18e49c197ba724ba17a696b907919f85fdba8ff4e2de233c12e8be4b909e908826040518082815260200191505060405180910390a15050505050505050505050565b610e5461425e565b60036000838152602001908152602001600020600901805480602002602001604051908101604052809291908181526020018280548015610eb457602002820191906000526020600020905b815481526020019060010190808311610ea0575b50505050509050919050565b600034111515610ecf57600080fd5b6003600082815260200190815260200160002060070160009054906101000a900460ff16151515610eff57600080fd5b60036000828152602001908152602001600020600301543460036000848152602001908152602001600020600401540111151515610f3c57600080fd5b346003600083815260200190815260200160002060040154016003600083815260200190815260200160002060040181905550600360008281526020019081526020016000206003015460036000838152602001908152602001600020600401541415610fd35760016003600083815260200190815260200160002060070160006101000a81548160ff0219169083151502179055505b600360008281526020019081526020016000206008018054806001018281610ffb9190614272565b9160005260206000209001600033909190916101000a81548173ffffffffffffffffffffffffffffffffffffffff021916908373ffffffffffffffffffffffffffffffffffffffff16021790555050600360008281526020019081526020016000206009018054806001018281611072919061415b565b91600052602060002090016000349091909150555060036000828152602001908152602001600020600201600081548092919060010191905055507fa18e49c197ba724ba17a696b907919f85fdba8ff4e2de233c12e8be4b909e908816040518082815260200191505060405180910390a150565b6110ef61425e565b600280548060200260200160405190810160405280929190818152602001828054801561113b57602002820191906000526020600020905b815481526020019060010190808311611127575b5050505050905090565b6000809054906101000a900473ffffffffffffffffffffffffffffffffffffffff1681565b6000600280549050905090565b61117f61429e565b61118761429e565b61118f6142b2565b6111976142b2565b6111a085612787565b92506111be600f6111b0856127c3565b6127f190919063ffffffff16565b91506112106112016040805190810160405280600f81526020017f485454502f312e3120323030204f4b00000000000000000000000000000000008152506127c3565b8361281990919063ffffffff16565b151561121b57600080fd5b61127361125c6040805190810160405280600481526020017f0d0a0d0a000000000000000000000000000000000000000000000000000000008152506127c3565b611265856127c3565b61282f90919063ffffffff16565b905061128960048261288190919063ffffffff16565b50611293816128d7565b9350505050919050565b60006112a76140b2565b60006112b161429e565b6112b96142cc565b6112c16140b2565b60008060008060006112d16142ee565b6000808f9a506112e08f612935565b99509950896020015196505b8a518a600001511015612052578a8a6000015181518110151561130b57fe5b9060200101517f010000000000000000000000000000000000000000000000000000000000000090047f0100000000000000000000000000000000000000000000000000000000000000029450607b7f010000000000000000000000000000000000000000000000000000000000000002857effffffffffffffffffffffffffffffffffffffffffffffffffffffffffffff191614806113ef5750605b7f010000000000000000000000000000000000000000000000000000000000000002857effffffffffffffffffffffffffffffffffffffffffffffffffffffffffffff1916145b1561152f5786806001019750506114068a8a6129e9565b935093508315156114245760038960008090509d509d509d50612061565b7fffffffffffffffffffffffffffffffffffffffffffffffffffffffffffffffff8a6040015114151561148357888a6040015181518110151561146357fe5b9060200190602002015160a001805180919060010160ff1660ff16815250505b607b7f010000000000000000000000000000000000000000000000000000000000000002857effffffffffffffffffffffffffffffffffffffffffffffffffffffffffffff1916146114d65760026114d9565b60015b836000019060048111156114e957fe5b908160048111156114f657fe5b815250508960000151836020018181525050600183604001901515908115158152505060018a60200151038a604001818152505061203d565b607d7f010000000000000000000000000000000000000000000000000000000000000002857effffffffffffffffffffffffffffffffffffffffffffffffffffffffffffff191614806115c65750605d7f010000000000000000000000000000000000000000000000000000000000000002857effffffffffffffffffffffffffffffffffffffffffffffffffffffffffffff1916145b1561180657607d7f010000000000000000000000000000000000000000000000000000000000000002857effffffffffffffffffffffffffffffffffffffffffffffffffffffffffffff19161461161e576002611621565b60015b91506000905060018a602001510395505b60008610151561173557888681518110151561164a57fe5b9060200190602002015192508260400151801561166957508260800151155b156117275781600481111561167a57fe5b8360000151600481111561168a57fe5b1415156116a45760018960008090509d509d509d50612061565b7fffffffffffffffffffffffffffffffffffffffffffffffffffffffffffffffff8a604001818152505060018a600001510189878151811015156116e457fe5b9060200190602002015160600181815250506001898781518110151561170657fe5b90602001906020020151608001901515908115158152505060019050611735565b858060019003965050611632565b80151561174f5760018960008090509d509d509d50612061565b5b60008611156117a857888681518110151561176757fe5b9060200190602002015192508260400151801561178657508260800151155b1561179a57858a60400181815250506117a8565b858060019003965050611750565b60008614156118015788868151811015156117bf57fe5b906020019060200201519250826040015180156117de57508260800151155b1561180057856fffffffffffffffffffffffffffffffff168a60400181815250505b5b61203d565b7f2200000000000000000000000000000000000000000000000000000000000000857effffffffffffffffffffffffffffffffffffffffffffffffffffffffffffff191614156118e55761185b8a8a8d612abb565b975060008814151561187957878960008090509d509d509d50612061565b86806001019750507fffffffffffffffffffffffffffffffffffffffffffffffffffffffffffffffff8a604001511415156118e057888a604001518151811015156118c057fe5b9060200190602002015160a001805180919060010160ff1660ff16815250505b61203d565b7f2000000000000000000000000000000000000000000000000000000000000000857effffffffffffffffffffffffffffffffffffffffffffffffffffffffffffff19161480611979575060117f010000000000000000000000000000000000000000000000000000000000000002857effffffffffffffffffffffffffffffffffffffffffffffffffffffffffffff1916145b806119c8575060127f010000000000000000000000000000000000000000000000000000000000000002857effffffffffffffffffffffffffffffffffffffffffffffffffffffffffffff1916145b80611a17575060147f010000000000000000000000000000000000000000000000000000000000000002857effffffffffffffffffffffffffffffffffffffffffffffffffffffffffffff1916145b15611a215761203d565b7f3a00000000000000000000000000000000000000000000000000000000000000857effffffffffffffffffffffffffffffffffffffffffffffffffffffffffffff19161415611a815760018a60200151038a604001818152505061203d565b7f2c00000000000000000000000000000000000000000000000000000000000000857effffffffffffffffffffffffffffffffffffffffffffffffffffffffffffff19161415611c71577fffffffffffffffffffffffffffffffffffffffffffffffffffffffffffffffff8a6040015114158015611b35575060026004811115611b0757fe5b898b60400151815181101515611b1957fe5b90602001906020020151600001516004811115611b3257fe5b14155b8015611b77575060016004811115611b4957fe5b898b60400151815181101515611b5b57fe5b90602001906020020151600001516004811115611b7457fe5b14155b15611c6c5760018a602001510395505b600086101515611c6b5760026004811115611b9e57fe5b8987815181101515611bac57fe5b90602001906020020151600001516004811115611bc557fe5b1480611c02575060016004811115611bd957fe5b8987815181101515611be757fe5b90602001906020020151600001516004811115611c0057fe5b145b15611c5d578886815181101515611c1557fe5b90602001906020020151604001518015611c4857508886815181101515611c3857fe5b9060200190602002015160800151155b15611c5c57858a6040018181525050611c6b565b5b858060019003965050611b87565b5b61203d565b7f3000000000000000000000000000000000000000000000000000000000000000857effffffffffffffffffffffffffffffffffffffffffffffffffffffffffffff191610158015611d0557507f3900000000000000000000000000000000000000000000000000000000000000857effffffffffffffffffffffffffffffffffffffffffffffffffffffffffffff191611155b80611d5157507f2d00000000000000000000000000000000000000000000000000000000000000857effffffffffffffffffffffffffffffffffffffffffffffffffffffffffffff1916145b80611d9d57507f6600000000000000000000000000000000000000000000000000000000000000857effffffffffffffffffffffffffffffffffffffffffffffffffffffffffffff1916145b80611de957507f7400000000000000000000000000000000000000000000000000000000000000857effffffffffffffffffffffffffffffffffffffffffffffffffffffffffffff1916145b80611e3557507f6e00000000000000000000000000000000000000000000000000000000000000857effffffffffffffffffffffffffffffffffffffffffffffffffffffffffffff1916145b15611f8a577fffffffffffffffffffffffffffffffffffffffffffffffffffffffffffffffff8a60400151141515611ef557888a60400151815181101515611e7957fe5b90602001906020020151925060016004811115611e9257fe5b83600001516004811115611ea257fe5b1480611edc575060036004811115611eb657fe5b83600001516004811115611ec657fe5b148015611edb575060008360a0015160ff1614155b5b15611ef45760018960008090509d509d509d50612061565b5b611f008a8a8d6131d2565b9750600088141515611f1e57878960008090509d509d509d50612061565b86806001019750507fffffffffffffffffffffffffffffffffffffffffffffffffffffffffffffffff8a60400151141515611f8557888a60400151815181101515611f6557fe5b9060200190602002015160a001805180919060010160ff1660ff16815250505b61203d565b60207f010000000000000000000000000000000000000000000000000000000000000002857effffffffffffffffffffffffffffffffffffffffffffffffffffffffffffff1916101580156120245750607e7f010000000000000000000000000000000000000000000000000000000000000002857effffffffffffffffffffffffffffffffffffffffffffffffffffffffffffff191611155b1561203c5760018960008090509d509d509d50612061565b5b896000018051809190600101815250506112ec565b6000898b602001519d509d509d505b50505050505050505050509250925092565b600061207d61409e565b60006120c28585600681518110151561209257fe5b90602001906020020151602001518660068151811015156120af57fe5b9060200190602002015160600151612597565b91506120cd82612773565b9050809250505092915050565b60006120e461409e565b612127848460e38151811015156120f757fe5b90602001906020020151602001518560e381518110151561211457fe5b9060200190602002015160600151612597565b90507f2334f7da83516c4bda5e15e59702114b7bda23288d9ff19698d624307d5555e2816040518080602001828103825283818151815260200191508051906020019080838360005b8381101561218b578082015181840152602081019050612170565b50505050905090810190601f1680156121b85780820380516001836020036101000a031916815260200191505b509250505060405180910390a161220a84846101108151811015156121d957fe5b9060200190602002015160200151856101108151811015156121f757fe5b9060200190602002015160600151612597565b90507f2334f7da83516c4bda5e15e59702114b7bda23288d9ff19698d624307d5555e2816040518080602001828103825283818151815260200191508051906020019080838360005b8381101561226e578082015181840152602081019050612253565b50505050905090810190601f16801561229b5780820380516001836020036101000a031916815260200191505b509250505060405180910390a16122e7816040805190810160405280600181526020017f530000000000000000000000000000000000000000000000000000000000000081525061269a565b156122f55760019150612428565b612338848460b081518110151561230857fe5b90602001906020020151602001518560b081518110151561232557fe5b9060200190602002015160600151612597565b90507f2334f7da83516c4bda5e15e59702114b7bda23288d9ff19698d624307d5555e2816040518080602001828103825283818151815260200191508051906020019080838360005b8381101561239c578082015181840152602081019050612381565b50505050905090810190601f1680156123c95780820380516001836020036101000a031916815260200191505b509250505060405180910390a1612415816040805190810160405280600181526020017f430000000000000000000000000000000000000000000000000000000000000081525061269a565b156124235760029150612428565b600391505b5092915050565b60008060007fe0a5793d275a533d50421b201c2c9a909abb58b1a9c0f9eb9b7963e5c8bc229591507ff34d47cb92b6474562675127677d4e446418498884c101aeb38f3afb0cab997e905073__tlsnutils_____________________________635569909f8584846000604051602001526040518463ffffffff167c01000000000000000000000000000000000000000000000000000000000281526004018080602001848152602001838152602001828103825285818151815260200191508051906020019080838360005b838110156125175780820151818401526020810190506124fc565b50505050905090810190601f1680156125445780820380516001836020036101000a031916815260200191505b5094505050505060206040518083038186803b151561256257600080fd5b6102c65a03f4151561257357600080fd5b505050604051805190501561258b5760019250612590565b600092505b5050919050565b61259f61409e565b6125a761429e565b6125af61429e565b60008692508585036040518059106125c45750595b9080825280601f01601f191660200182016040525091508590505b8481101561268d5782818151811015156125f557fe5b9060200101517f010000000000000000000000000000000000000000000000000000000000000090047f0100000000000000000000000000000000000000000000000000000000000000028287830381518110151561265057fe5b9060200101907effffffffffffffffffffffffffffffffffffffffffffffffffffffffffffff1916908160001a90535080806001019150506125df565b8193505050509392505050565b6000816040518082805190602001908083835b6020831015156126d257805182526020820191506020810190506020830392506126ad565b6001836020036101000a038019825116818451168082178552505050505050905001915050604051809103902060001916836040518082805190602001908083835b6020831015156127395780518252602082019150602081019050602083039250612714565b6001836020036101000a03801982511681845116808217855250505050505090500191505060405180910390206000191614905092915050565b60006127808260006135b4565b9050919050565b61278f61429e565b6127bc8260017f010000000000000000000000000000000000000000000000000000000000000002613993565b9050919050565b6127cb6142b2565b600060208301905060408051908101604052808451815260200182815250915050919050565b6127f96142b2565b818360000151111561281057818360000181815250505b82905092915050565b6000806128268484613dc0565b14905092915050565b6128376142b2565b60006128558460000151856020015185600001518660200151613e7a565b905083602001518103846000018181510391508181525050808460200181815250508391505092915050565b6128896142b2565b82600001518263ffffffff16111515156128a257600080fd5b8163ffffffff168360200181815101915081815250508163ffffffff1683600001818151039150818152505082905092915050565b6128df61429e565b6128e761429e565b600083600001516040518059106128fb5750595b9080825280601f01601f1916602001820160405250915060208201905061292b8185602001518660000151613f36565b8192505050919050565b61293d6142cc565b6129456140b2565b61294d6142cc565b6129556140b2565b60606040519081016040528060008152602001600081526020017fffffffffffffffffffffffffffffffffffffffffffffffffffffffffffffffff8152509150846040518059106129a35750595b9080825280602002602001820160405280156129d957816020015b6129c6614337565b8152602001906001900390816129be5790505b5090508181935093505050915091565b60006129f36142ee565b6129fb6142ee565b83518560200151101515612a33576000846001865103815181101515612a1d57fe5b9060200190602002015180905092509250612ab3565b60c06040519081016040528060006004811115612a4c57fe5b81526020016000815260200160001515815260200160008152602001600015158152602001600060ff16815250905080848660200151815181101515612a8e57fe5b9060200190602002018190525084602001805180919060010181525050600181925092505b509250929050565b600080600080612ac96142ee565b87600001519350876000018051809190600101815250505b8551886000015110156131b857858860000151815181101515612b0057fe5b9060200101517f010000000000000000000000000000000000000000000000000000000000000090047f01000000000000000000000000000000000000000000000000000000000000000292507f2200000000000000000000000000000000000000000000000000000000000000837effffffffffffffffffffffffffffffffffffffffffffffffffffffffffffff19161415612bdc57612ba188886129e9565b91509150811515612bbf5783886000018181525050600394506131c7565b612bd3816003600187018b60000151613f81565b600094506131c7565b605c7f010000000000000000000000000000000000000000000000000000000000000002837effffffffffffffffffffffffffffffffffffffffffffffffffffffffffffff1916148015612c37575085516001896000015101105b156131a257876000018051809190600101815250507f2200000000000000000000000000000000000000000000000000000000000000868960000151815181101515612c7f57fe5b9060200101517f010000000000000000000000000000000000000000000000000000000000000090047f0100000000000000000000000000000000000000000000000000000000000000027effffffffffffffffffffffffffffffffffffffffffffffffffffffffffffff19161480612d9557507f2f00000000000000000000000000000000000000000000000000000000000000868960000151815181101515612d2657fe5b9060200101517f010000000000000000000000000000000000000000000000000000000000000090047f0100000000000000000000000000000000000000000000000000000000000000027effffffffffffffffffffffffffffffffffffffffffffffffffffffffffffff1916145b80612e3d57507f5c00000000000000000000000000000000000000000000000000000000000000868960000151815181101515612dce57fe5b9060200101517f010000000000000000000000000000000000000000000000000000000000000090047f0100000000000000000000000000000000000000000000000000000000000000027effffffffffffffffffffffffffffffffffffffffffffffffffffffffffffff1916145b80612ee557507f6600000000000000000000000000000000000000000000000000000000000000868960000151815181101515612e7657fe5b9060200101517f010000000000000000000000000000000000000000000000000000000000000090047f0100000000000000000000000000000000000000000000000000000000000000027effffffffffffffffffffffffffffffffffffffffffffffffffffffffffffff1916145b80612f8d57507f7200000000000000000000000000000000000000000000000000000000000000868960000151815181101515612f1e57fe5b9060200101517f010000000000000000000000000000000000000000000000000000000000000090047f0100000000000000000000000000000000000000000000000000000000000000027effffffffffffffffffffffffffffffffffffffffffffffffffffffffffffff1916145b8061303557507f6e00000000000000000000000000000000000000000000000000000000000000868960000151815181101515612fc657fe5b9060200101517f010000000000000000000000000000000000000000000000000000000000000090047f0100000000000000000000000000000000000000000000000000000000000000027effffffffffffffffffffffffffffffffffffffffffffffffffffffffffffff1916145b806130dd57507f620000000000000000000000000000000000000000000000000000000000000086896000015181518110151561306e57fe5b9060200101517f010000000000000000000000000000000000000000000000000000000000000090047f0100000000000000000000000000000000000000000000000000000000000000027effffffffffffffffffffffffffffffffffffffffffffffffffffffffffffff1916145b8061318557507f740000000000000000000000000000000000000000000000000000000000000086896000015181518110151561311657fe5b9060200101517f010000000000000000000000000000000000000000000000000000000000000090047f0100000000000000000000000000000000000000000000000000000000000000027effffffffffffffffffffffffffffffffffffffffffffffffffffffffffffff1916145b1561318f576131a3565b83886000018181525050600194506131c7565b5b87600001805180919060010181525050612ae1565b83886000018181525050600294505b505050509392505050565b60008060008060006131e26142ee565b60009450886000015193505b86518960000151101561353f5786896000015181518110151561320d57fe5b9060200101517f010000000000000000000000000000000000000000000000000000000000000090047f01000000000000000000000000000000000000000000000000000000000000000292507f2000000000000000000000000000000000000000000000000000000000000000837effffffffffffffffffffffffffffffffffffffffffffffffffffffffffffff191614806132eb57507f0900000000000000000000000000000000000000000000000000000000000000837effffffffffffffffffffffffffffffffffffffffffffffffffffffffffffff1916145b8061333757507f0a00000000000000000000000000000000000000000000000000000000000000837effffffffffffffffffffffffffffffffffffffffffffffffffffffffffffff1916145b8061338357507f0d00000000000000000000000000000000000000000000000000000000000000837effffffffffffffffffffffffffffffffffffffffffffffffffffffffffffff1916145b806133cf57507f2c00000000000000000000000000000000000000000000000000000000000000837effffffffffffffffffffffffffffffffffffffffffffffffffffffffffffff1916145b8061341e5750607d7f010000000000000000000000000000000000000000000000000000000000000002837effffffffffffffffffffffffffffffffffffffffffffffffffffffffffffff1916145b8061346d5750605d7f010000000000000000000000000000000000000000000000000000000000000002837effffffffffffffffffffffffffffffffffffffffffffffffffffffffffffff1916145b1561347b576001945061353f565b60207f010000000000000000000000000000000000000000000000000000000000000002837effffffffffffffffffffffffffffffffffffffffffffffffffffffffffffff191610806135125750607f7f010000000000000000000000000000000000000000000000000000000000000002837effffffffffffffffffffffffffffffffffffffffffffffffffffffffffffff1916115b1561352a5783896000018181525050600195506135a8565b886000018051809190600101815250506131ee565b8415156135595783896000018181525050600295506135a8565b61356389896129e9565b915091508115156135815783896000018181525050600395506135a8565b613592816004868c60000151613f81565b8860000180518091906001900381525050600095505b50505050509392505050565b60006135be61429e565b600080600080879450600093506000925060009150600090505b84518110156139475760008114801561368a57507f2d00000000000000000000000000000000000000000000000000000000000000858281518110151561361b57fe5b9060200101517f010000000000000000000000000000000000000000000000000000000000000090047f0100000000000000000000000000000000000000000000000000000000000000027effffffffffffffffffffffffffffffffffffffffffffffffffffffffffffff1916145b1561369457600191505b60307f01000000000000000000000000000000000000000000000000000000000000000285828151811015156136c657fe5b9060200101517f010000000000000000000000000000000000000000000000000000000000000090047f0100000000000000000000000000000000000000000000000000000000000000027effffffffffffffffffffffffffffffffffffffffffffffffffffffffffffff1916101580156137de575060397f010000000000000000000000000000000000000000000000000000000000000002858281518110151561376e57fe5b9060200101517f010000000000000000000000000000000000000000000000000000000000000090047f0100000000000000000000000000000000000000000000000000000000000000027effffffffffffffffffffffffffffffffffffffffffffffffffffffffffffff191611155b1561388f5782156138015760008714156137f757613947565b8680600190039750505b600a840293506030858281518110151561381757fe5b9060200101517f010000000000000000000000000000000000000000000000000000000000000090047f0100000000000000000000000000000000000000000000000000000000000000027f01000000000000000000000000000000000000000000000000000000000000009004038401935061393a565b602e7f01000000000000000000000000000000000000000000000000000000000000000285828151811015156138c157fe5b9060200101517f010000000000000000000000000000000000000000000000000000000000000090047f0100000000000000000000000000000000000000000000000000000000000000027effffffffffffffffffffffffffffffffffffffffffffffffffffffffffffff1916141561393957600192505b5b80806001019150506135d8565b60008711156139595786600a0a840293505b8115613985577fffffffffffffffffffffffffffffffffffffffffffffffffffffffffffffffff840293505b839550505050505092915050565b61399b61429e565b6139a361429e565b60008060008060006139b36142b2565b602060405190810160405280600081525096506060955089601b8151811015156139d957fe5b9060200101517f010000000000000000000000000000000000000000000000000000000000000090047f0100000000000000000000000000000000000000000000000000000000000000027f01000000000000000000000000000000000000000000000000000000000000009004610100028a601a815181101515613a5a57fe5b9060200101517f010000000000000000000000000000000000000000000000000000000000000090047f0100000000000000000000000000000000000000000000000000000000000000027f010000000000000000000000000000000000000000000000000000000000000090040186019550600093505b896007815181101515613ae157fe5b9060200101517f010000000000000000000000000000000000000000000000000000000000000090047f0100000000000000000000000000000000000000000000000000000000000000027f01000000000000000000000000000000000000000000000000000000000000009004610100028a6006815181101515613b6257fe5b9060200101517f010000000000000000000000000000000000000000000000000000000000000090047f0100000000000000000000000000000000000000000000000000000000000000027f010000000000000000000000000000000000000000000000000000000000000090040161ffff168461ffff161015613db057602186018a01519250826001600281101515613bf857fe5b1a7f0100000000000000000000000000000000000000000000000000000000000000027f0100000000000000000000000000000000000000000000000000000000000000900461010002836000600281101515613c5157fe5b1a7f0100000000000000000000000000000000000000000000000000000000000000027f01000000000000000000000000000000000000000000000000000000000000009004019150896003870161ffff16815181101515613caf57fe5b9060200101517f010000000000000000000000000000000000000000000000000000000000000090047f0100000000000000000000000000000000000000000000000000000000000000029450600486019550887effffffffffffffffffffffffffffffffffffffffffffffffffffffffffffff1916857effffffffffffffffffffffffffffffffffffffffffffffffffffffffffffff19161415613d9b57613d7b8261ffff16613d6d8861ffff168d613ff290919063ffffffff16565b6127f190919063ffffffff16565b9050613d9881613d8a896127c3565b61402090919063ffffffff16565b96505b60108201860195508380600101945050613ad2565b8697505050505050505092915050565b60008060008060008060008060008a6000015197508a600001518a600001511015613ded57896000015197505b8a60200151965089602001519550600094505b87851015613e5e5786519350855192508284141515613e4757600185896020030160080260020a03199150818316828516039050600081141515613e4657809850613e6c565b5b602087019650602086019550602085019450613e00565b89600001518b600001510398505b505050505050505092915050565b60008060008060008887111515613f2457602087111515613edb5760018760200360080260020a031980875116888b038a018a96505b818388511614613ed057600187019650806001880310613eb0578b8b0196505b505050839450613f2a565b8686209150879350600092505b86890383111515613f23578684209050806000191682600019161415613f1057839450613f2a565b6001840193508280600101935050613ee8565b5b88880194505b50505050949350505050565b60005b602082101515613f5e5782518452602084019350602083019250602082039150613f39565b6001826020036101000a0390508019835116818551168181178652505050505050565b8284600001906004811115613f9257fe5b90816004811115613f9f57fe5b8152505081846020018181525050600184604001901515908115158152505080846060018181525050600184608001901515908115158152505060008460a0019060ff16908160ff168152505050505050565b613ffa6142b2565b6140026142b2565b61400b846127c3565b90506140178184612881565b91505092915050565b61402861429e565b61403061429e565b6000836000015185600001510160405180591061404a5750595b9080825280601f01601f1916602001820160405250915060208201905061407a8186602001518760000151613f36565b6140938560000151820185602001518660000151613f36565b819250505092915050565b602060405190810160405280600081525090565b602060405190810160405280600081525090565b602060405190810160405280600081525090565b6101606040519081016040528060008152602001600073ffffffffffffffffffffffffffffffffffffffff1681526020016000815260200160008152602001600081526020016000815260200160008152602001600015158152602001600015158152602001614148614380565b8152602001614155614394565b81525090565b8154818355818115116141825781836000526020600020918201910161418191906143a8565b5b505050565b828054828255906000526020600020908101928215614200579160200282015b828111156141ff5782518260006101000a81548173ffffffffffffffffffffffffffffffffffffffff021916908373ffffffffffffffffffffffffffffffffffffffff160217905550916020019190600101906141a7565b5b50905061420d91906143cd565b5090565b82805482825590600052602060002090810192821561424d579160200282015b8281111561424c578251825591602001919060010190614231565b5b50905061425a91906143a8565b5090565b602060405190810160405280600081525090565b8154818355818115116142995781836000526020600020918201910161429891906143a8565b5b505050565b602060405190810160405280600081525090565b604080519081016040528060008152602001600081525090565b6060604051908101604052806000815260200160008152602001600081525090565b60c0604051908101604052806000600481111561430757fe5b81526020016000815260200160001515815260200160008152602001600015158152602001600060ff1681525090565b60c0604051908101604052806000600481111561435057fe5b81526020016000815260200160001515815260200160008152602001600015158152602001600060ff1681525090565b602060405190810160405280600081525090565b602060405190810160405280600081525090565b6143ca91905b808211156143c65760008160009055506001016143ae565b5090565b90565b61440d91905b8082111561440957600081816101000a81549073ffffffffffffffffffffffffffffffffffffffff0219169055506001016143d3565b5090565b905600a165627a7a723058205a2732718b57c731f2bf641b54ee081cb3e3a089c0a69a29be2cb4ea2a8832540029",
  "source": "pragma solidity ^0.4.18;\nimport \"../installed_contracts/jsmnsol-lib/contracts/JsmnSolLib.sol\";\nimport \"../installed_contracts/bytesutils.sol\";\nimport \"../installed_contracts/tlsnutils.sol\";\n\ncontract Insurance {\n\n  /***********************************/\n  /******* CONTRACT ATTRIBUTES *******/\n  /***********************************/\n\n  struct InsuranceCover {\n    uint insuranceID;\n    address proposer;\n    uint numberOfProviders;\n    uint totalCoverAmount;\n    uint currentFundedCover;\n    uint premiumAmount;\n    int flightID;\n    bool filled;\n    bool deleted;\n    address[] contributors;\n    uint[] contributions;\n  }\n\n  address public master;\n  uint insuranceCoverCount;\n  uint[] insuranceIDs;\n  mapping(uint => InsuranceCover) public allInsuranceCovers;\n\n  /***********************************/\n  /************* MODIFIERS ***********/\n  /***********************************/\n\n\n  /***********************************/\n  /************** EVENTS *************/\n  /***********************************/\n\n  event InsuranceCoverChange(uint insuranceID);\n  event Status(int status);\n  event StatusStr(string status);\n  /***********************************/\n  /********* PUBLIC FUNCTIONS ********/\n  /***********************************/\n\n  /// @dev      Insurance contract constructor sets initial insurance cover count to 0\n  function Insurance() public {\n    master = msg.sender;\n    insuranceCoverCount = 0;\n  }\n\n  /// @dev                        Allows a user to propose an insurance contract\n  /// @param  _hex_proof          The hexidecimal proof passing through the flight ID\n  /// @param  _totalCoverAmount   The total cover required by the user\n  function proposeInsuranceCover(bytes memory _hex_proof, uint _totalCoverAmount) public payable {\n    require(msg.value > 0);\n    require(verifyProof(_hex_proof));\n\n    // Parse the response body of the TLS-N proof\n    string memory body = string(tlsnutils.getHTTPBody(_hex_proof));\n    StatusStr(body);\n    JsmnSolLib.Token[] memory tokens;\n    uint returnValue;\n    uint actualNum;\n    (returnValue, tokens, actualNum) = JsmnSolLib.parse(body, 300);\n\n    // Check that the flight has not already occurred\n    // Flight status has to be 'S' for 'scheduled'\n    string memory status = JsmnSolLib.getBytes(body, tokens[227].start, tokens[227].end);\n    StatusStr(status);\n    require(compareStrings(status,'S'));\n\n    // Then get the flight ID\n    string memory flightIDString = JsmnSolLib.getBytes(body, tokens[6].start, tokens[6].end);\n    int flightID = JsmnSolLib.parseInt(flightIDString);\n\n    // Enter all flight details and create insurance contract\n    uint insuranceID = (insuranceCoverCount++)+1000;\n    insuranceIDs.push(insuranceID);\n    InsuranceCover memory newContract;\n\n    // Set all values of the new contract\n    newContract.insuranceID = insuranceID;\n    newContract.proposer = msg.sender;\n    newContract.numberOfProviders = 0;\n    newContract.totalCoverAmount = _totalCoverAmount;\n    newContract.currentFundedCover = 0;\n    newContract.premiumAmount = msg.value;\n    newContract.flightID = flightID;\n    newContract.filled = false;\n    newContract.deleted = false;\n\n    // Add this new contract to the 'database'\n    allInsuranceCovers[insuranceID] = newContract;\n    InsuranceCoverChange(insuranceID);\n  }\n\n  /// @dev            Allows a user to provide capital to the contract\n  /// @param  _insuranceID  The insurance ID that the user is accepting\n  function acceptContract(uint _insuranceID) public payable {\n    require(msg.value > 0);\n    require(!allInsuranceCovers[_insuranceID].filled);\n    require((allInsuranceCovers[_insuranceID].currentFundedCover + msg.value) <= allInsuranceCovers[_insuranceID].totalCoverAmount);\n\n    allInsuranceCovers[_insuranceID].currentFundedCover = allInsuranceCovers[_insuranceID].currentFundedCover + msg.value;\n\n\n    if (allInsuranceCovers[_insuranceID].currentFundedCover == allInsuranceCovers[_insuranceID].totalCoverAmount) {\n      allInsuranceCovers[_insuranceID].filled = true;\n    }\n\n    // Add acceptor to the contractProvider mapping\n    allInsuranceCovers[_insuranceID].contributors.push(msg.sender);\n    allInsuranceCovers[_insuranceID].contributions.push(msg.value);\n    allInsuranceCovers[_insuranceID].numberOfProviders++;\n    InsuranceCoverChange(_insuranceID);\n  }\n\n  /// @dev                    Calculates the outcome of an insurance contract\n  /// @param  _insuranceID    The insurance ID that is being used\n  /// @param  _hex_proof      The proof with the details of the flight\n  function resolveContract(uint _insuranceID, bytes memory _hex_proof) public payable {\n    // Verify the TLS-N Proof\n    /* require(allInsuranceCovers[_insuranceID].filled);\n    require(verifyProof(_hex_proof)); */\n\n    // Parse the response body of the TLS-N proof\n    string memory body = string(tlsnutils.getHTTPBody(_hex_proof));\n    JsmnSolLib.Token[] memory tokens;\n    uint returnValue;\n    uint actualNum;\n    (returnValue, tokens, actualNum) = JsmnSolLib.parse(body, 500);\n\n    // First check that the flight IDs are the same\n    int temp = getFlightID(body, tokens);\n    // Add this back in once testing is finished\n    /* require(temp == allInsuranceCovers[_insuranceID].flightID); */\n\n    // Check the status\n    temp = getStatus(body, tokens);\n    /* Status(temp); */\n    /* require(temp != 1); */\n    // If the flight was cancelled pay out the funds to the proposer\n    // Also pay the premium to the contributors\n    // Flight status has to be 'C' for 'cancelled'\n\n    /* uint sum = 0;\n    uint premiumPayout;\n\n    uint i;\n    if (temp == 2) {\n      // the flight was cancelled\n      allInsuranceCovers[_insuranceID].proposer.transfer(allInsuranceCovers[_insuranceID].totalCoverAmount);\n      for (i=0; i< allInsuranceCovers[_insuranceID].numberOfProviders - 1; i++) {\n        premiumPayout = (allInsuranceCovers[_insuranceID].contributions[i] * allInsuranceCovers[_insuranceID].premiumAmount) / allInsuranceCovers[_insuranceID].totalCoverAmount;\n        allInsuranceCovers[_insuranceID].contributors[i].transfer(premiumPayout);\n        sum += premiumPayout;\n      }\n      allInsuranceCovers[_insuranceID].contributors[i].transfer(allInsuranceCovers[_insuranceID].premiumAmount-sum);\n    }\n    else {\n      // the flight was not cancelled\n      for (i=0; i< allInsuranceCovers[_insuranceID].numberOfProviders - 1; i++) {\n        premiumPayout = (allInsuranceCovers[_insuranceID].contributions[i] * allInsuranceCovers[_insuranceID].premiumAmount) / allInsuranceCovers[_insuranceID].totalCoverAmount;\n        allInsuranceCovers[_insuranceID].contributors[i].transfer(premiumPayout + allInsuranceCovers[_insuranceID].contributions[i]);\n        sum += premiumPayout;\n      }\n      allInsuranceCovers[_insuranceID].contributors[i].transfer(allInsuranceCovers[_insuranceID].premiumAmount-sum + allInsuranceCovers[_insuranceID].contributions[i]);\n    }\n    allInsuranceCovers[_insuranceID].deleted = true; */\n  }\n\n  /// @dev                    Returns the status for the cancelling contract function\n  /// @param  body            The body of the TLS-N proof\n  /// @param  tokens          Tokens from the JsmnSolLib\n  /// @return                 An integer corresponding to the status\n  function getStatus(string body, JsmnSolLib.Token[] memory tokens) private returns(int) {\n    // Flight status has to be 'C' for 'cancelled'\n    string memory status;\n    status = JsmnSolLib.getBytes(body, tokens[227].start, tokens[227].end);\n    StatusStr(status);\n    status = JsmnSolLib.getBytes(body, tokens[272].start, tokens[272].end);\n    StatusStr(status);\n    if (compareStrings(status,'S')) return 1;\n    status = JsmnSolLib.getBytes(body, tokens[176].start, tokens[176].end); //167\n    StatusStr(status);\n    if (compareStrings(status,'C')) return 2;\n    else return 3;\n  }\n\n  /// @dev                    Returns the flightID for the cancelling contract function\n  /// @param  body            The body of the TLS-N proof\n  /// @param  tokens          Tokens from the JsmnSolLib\n  /// @return                 An integer corresponding to the flight ID\n  function getFlightID(string body, JsmnSolLib.Token[] memory tokens) private returns(int) {\n    string memory flightIDString = JsmnSolLib.getBytes(body, tokens[6].start, tokens[6].end);\n    int flightID = JsmnSolLib.parseInt(flightIDString);\n    return flightID;\n  }\n\n  // @dev                   allows user to cancel a proposed insurance contract, insuranceID is deleted and\n  //                        contract funds transfered to the proposer and\n  // @param _insuranceID    The insurance ID that is being canceled\n  function cancelInsuranceContract(uint _insuranceID) public payable {\n      require(allInsuranceCovers[_insuranceID].proposer == msg.sender);\n      require(allInsuranceCovers[_insuranceID].filled == false);\n      require(allInsuranceCovers[_insuranceID].deleted == false);\n      allInsuranceCovers[_insuranceID].deleted = true;\n      InsuranceCoverChange(_insuranceID);\n      allInsuranceCovers[_insuranceID].proposer.transfer(allInsuranceCovers[_insuranceID].premiumAmount);\n      for (uint i=0; i< allInsuranceCovers[_insuranceID].numberOfProviders; i++) {\n        allInsuranceCovers[_insuranceID].contributors[i].transfer(allInsuranceCovers[_insuranceID].contributions[i]);\n      }\n  }\n\n  /// @dev                    Returns details of a specific insurance contract\n  /// @param  _insuranceID    The insurance ID that you are requesting\n  /// @return                 1. proposer address, 2. total cover amount, 3. current funded cover,\n  ///                         4. premium amount, 5. the flight ID\n  function getInsuranceContract(uint _insuranceID) public constant returns (address, uint, uint, uint, int) {\n    return  (allInsuranceCovers[_insuranceID].proposer,\n             allInsuranceCovers[_insuranceID].totalCoverAmount,\n             allInsuranceCovers[_insuranceID].currentFundedCover,\n             allInsuranceCovers[_insuranceID].premiumAmount,\n             allInsuranceCovers[_insuranceID].flightID);\n  }\n\n  /// @dev                    Returns an array of all insurance IDs\n  /// @return                 All insurance IDs that have ever been created\n  function getInsuranceContracts() public constant returns (uint[]) {\n    return insuranceIDs;\n  }\n\n  /// @dev                    Allows the requestor to see how many contracts have been created\n  /// @return                 Returns an integer of the number of contracts\n  function getNumberOfInsuranceContracts() public constant returns (uint) {\n    return insuranceIDs.length;\n  }\n\n  /***********************************/\n  /******** PRIVATE FUNCTIONS ********/\n  /***********************************/\n\n  /// @dev       Compares two strings\n  /// @param  a  The first string to be compared\n  /// @param  b  The second string to be compared\n  /// @return    Returns true if two strings are the same, false otherwise\n  function compareStrings (string a, string b) private returns (bool){\n    return keccak256(a) == keccak256(b);\n   }\n\n  function getInsuranceContributors(uint _insuranceID) public constant returns(address[]) {\n    return allInsuranceCovers[_insuranceID].contributors;\n  }\n\n  function getInsuranceContributions(uint _insuranceID) public constant returns(uint[]) {\n    return allInsuranceCovers[_insuranceID].contributions;\n  }\n\n  function verifyProof(bytes memory proof) private returns (bool){\n    uint256 qx = 0xe0a5793d275a533d50421b201c2c9a909abb58b1a9c0f9eb9b7963e5c8bc2295;\n    uint256 qy = 0xf34d47cb92b6474562675127677d4e446418498884c101aeb38f3afb0cab997e;\n\n    if(tlsnutils.verifyProof(proof, qx, qy)) {\n      return true;\n    }\n    return false;\n  }\n}\n",
  "sourcePath": "/home/vincent/Documents/imperial/group project/Insurance-With-Smart-Contracts/contracts/Insurance.sol",
  "compiler": {
    "name": "solc",
    "version": "0.4.19+commit.c4cbbb05.Emscripten.clang"
  },
  "schemaVersion": "1.0.1",
  "updatedAt": "2018-05-15T10:31:31.126Z"
}