{
  "contractName": "Insurance",
  "abi": [
    {
      "constant": true,
      "inputs": [
        {
          "name": "",
          "type": "uint256"
        }
      ],
      "name": "allInsuranceCovers",
      "outputs": [
        {
          "name": "insuranceID",
          "type": "uint256"
        },
        {
          "name": "proposer",
          "type": "address"
        },
        {
          "name": "numberOfProviders",
          "type": "uint256"
        },
        {
          "name": "totalCoverAmount",
          "type": "uint256"
        },
        {
          "name": "currentFundedCover",
          "type": "uint256"
        },
        {
          "name": "premiumAmount",
          "type": "uint256"
        },
        {
          "name": "flightID",
          "type": "int256"
        },
        {
          "name": "filled",
          "type": "bool"
        },
        {
          "name": "deleted",
          "type": "bool"
        }
      ],
      "payable": false,
      "stateMutability": "view",
      "type": "function"
    },
    {
      "constant": true,
      "inputs": [],
      "name": "master",
      "outputs": [
        {
          "name": "",
          "type": "address"
        }
      ],
      "payable": false,
      "stateMutability": "view",
      "type": "function"
    },
    {
      "inputs": [],
      "payable": false,
      "stateMutability": "nonpayable",
      "type": "constructor"
    },
    {
      "anonymous": false,
      "inputs": [
        {
          "indexed": false,
          "name": "insuranceID",
          "type": "uint256"
        }
      ],
      "name": "InsuranceCoverChange",
      "type": "event"
    },
    {
      "anonymous": false,
      "inputs": [
        {
          "indexed": false,
          "name": "status",
          "type": "uint256"
        }
      ],
      "name": "Status",
      "type": "event"
    },
    {
      "constant": false,
      "inputs": [
        {
          "name": "_hex_proof",
          "type": "bytes"
        },
        {
          "name": "_totalCoverAmount",
          "type": "uint256"
        }
      ],
      "name": "proposeInsuranceCover",
      "outputs": [],
      "payable": true,
      "stateMutability": "payable",
      "type": "function"
    },
    {
      "constant": false,
      "inputs": [
        {
          "name": "_insuranceID",
          "type": "uint256"
        }
      ],
      "name": "acceptContract",
      "outputs": [],
      "payable": true,
      "stateMutability": "payable",
      "type": "function"
    },
    {
      "constant": false,
      "inputs": [
        {
          "name": "_insuranceID",
          "type": "uint256"
        },
        {
          "name": "_hex_proof",
          "type": "bytes"
        }
      ],
      "name": "resolveContract",
      "outputs": [],
      "payable": true,
      "stateMutability": "payable",
      "type": "function"
    },
    {
      "constant": false,
      "inputs": [
        {
          "name": "_insuranceID",
          "type": "uint256"
        }
      ],
      "name": "cancelInsuranceContract",
      "outputs": [],
      "payable": true,
      "stateMutability": "payable",
      "type": "function"
    },
    {
      "constant": true,
      "inputs": [
        {
          "name": "_insuranceID",
          "type": "uint256"
        }
      ],
      "name": "getInsuranceContract",
      "outputs": [
        {
          "name": "",
          "type": "address"
        },
        {
          "name": "",
          "type": "uint256"
        },
        {
          "name": "",
          "type": "uint256"
        },
        {
          "name": "",
          "type": "uint256"
        },
        {
          "name": "",
          "type": "int256"
        }
      ],
      "payable": false,
      "stateMutability": "view",
      "type": "function"
    },
    {
      "constant": true,
      "inputs": [],
      "name": "getInsuranceContracts",
      "outputs": [
        {
          "name": "",
          "type": "uint256[]"
        }
      ],
      "payable": false,
      "stateMutability": "view",
      "type": "function"
    },
    {
      "constant": true,
      "inputs": [],
      "name": "getNumberOfInsuranceContracts",
      "outputs": [
        {
          "name": "",
          "type": "uint256"
        }
      ],
      "payable": false,
      "stateMutability": "view",
      "type": "function"
    },
    {
      "constant": true,
      "inputs": [
        {
          "name": "_insuranceID",
          "type": "uint256"
        }
      ],
      "name": "getInsuranceContributors",
      "outputs": [
        {
          "name": "",
          "type": "address[]"
        }
      ],
      "payable": false,
      "stateMutability": "view",
      "type": "function"
    },
    {
      "constant": true,
      "inputs": [
        {
          "name": "_insuranceID",
          "type": "uint256"
        }
      ],
      "name": "getInsuranceContributions",
      "outputs": [
        {
          "name": "",
          "type": "uint256[]"
        }
      ],
      "payable": false,
      "stateMutability": "view",
      "type": "function"
    }
  ],
  "bytecode": "0x6060604052341561000f57600080fd5b336000806101000a81548173ffffffffffffffffffffffffffffffffffffffff021916908373ffffffffffffffffffffffffffffffffffffffff1602179055506000600181905550614738806100666000396000f3006060604052600436106100af576000357c0100000000000000000000000000000000000000000000000000000000900463ffffffff16806307d54bb0146100b457806336b49b0c1461013357806355a8b40c146101d65780635cc6a13e146102315780636a31a4ea146102a95780637c6dfd93146102c15780638aaf11d91461031c5780639a115c0414610394578063e33e59d8146103ac578063ee97f7f314610416578063f1d749801461046b575b600080fd5b34156100bf57600080fd5b6100d56004808035906020019091905050610494565b604051808673ffffffffffffffffffffffffffffffffffffffff1673ffffffffffffffffffffffffffffffffffffffff1681526020018581526020018481526020018381526020018281526020019550505050505060405180910390f35b341561013e57600080fd5b6101546004808035906020019091905050610542565b604051808a81526020018973ffffffffffffffffffffffffffffffffffffffff1673ffffffffffffffffffffffffffffffffffffffff1681526020018881526020018781526020018681526020018581526020018481526020018315151515815260200182151515158152602001995050505050505050505060405180910390f35b61022f600480803590602001909190803590602001908201803590602001908080601f016020809104026020016040519081016040528093929190818152602001838380828437820191505050505050919050506105ca565b005b341561023c57600080fd5b6102526004808035906020019091905050610c2b565b6040518080602001828103825283818151815260200191508051906020019060200280838360005b8381101561029557808201518184015260208101905061027a565b505050509050019250505060405180910390f35b6102bf6004808035906020019091905050610cd5565b005b61031a600480803590602001908201803590602001908080601f01602080910402602001604051908101604052809392919081815260200183838082843782019150505050505091908035906020019091905050610f5f565b005b341561032757600080fd5b61033d600480803590602001909190505061142b565b6040518080602001828103825283818151815260200191508051906020019060200280838360005b83811015610380578082015181840152602081019050610365565b505050509050019250505060405180910390f35b6103aa600480803590602001909190505061149f565b005b34156103b757600080fd5b6103bf611766565b6040518080602001828103825283818151815260200191508051906020019060200280838360005b838110156104025780820151818401526020810190506103e7565b505050509050019250505060405180910390f35b341561042157600080fd5b6104296117c4565b604051808273ffffffffffffffffffffffffffffffffffffffff1673ffffffffffffffffffffffffffffffffffffffff16815260200191505060405180910390f35b341561047657600080fd5b61047e6117e9565b6040518082815260200191505060405180910390f35b60008060008060006003600087815260200190815260200160002060010160009054906101000a900473ffffffffffffffffffffffffffffffffffffffff1660036000888152602001908152602001600020600301546003600089815260200190815260200160002060040154600360008a815260200190815260200160002060050154600360008b8152602001908152602001600020600601549450945094509450945091939590929450565b60036020528060005260406000206000915090508060000154908060010160009054906101000a900473ffffffffffffffffffffffffffffffffffffffff16908060020154908060030154908060040154908060050154908060060154908060070160009054906101000a900460ff16908060070160019054906101000a900460ff16905089565b6105d261439a565b6105da6143ae565b600080600080600080600360008b815260200190815260200160002060070160009054906101000a900460ff16151561061257600080fd5b73__tlsnutils_____________________________6355c265fe8a6000604051602001526040518263ffffffff167c01000000000000000000000000000000000000000000000000000000000281526004018080602001828103825283818151815260200191508051906020019080838360005b838110156106a1578082015181840152602081019050610686565b50505050905090810190601f1680156106ce5780820380516001836020036101000a031916815260200191505b509250505060206040518083038186803b15156106ea57600080fd5b6102c65a03f415156106fb57600080fd5b50505060405180519050151561071057600080fd5b610719896117f6565b9750610727886101f461191c565b80975081995082985050505061073d88886126f2565b93506107498888612759565b93506001841415151561075b57600080fd5b60028414801561078b5750600360008b815260200190815260200160002060070160009054906101000a900460ff165b1561094657600360008b815260200190815260200160002060010160009054906101000a900473ffffffffffffffffffffffffffffffffffffffff1673ffffffffffffffffffffffffffffffffffffffff166108fc600360008d8152602001908152602001600020600301549081150290604051600060405180830381858888f19350505050151561081c57600080fd5b600092505b600360008b81526020019081526020016000206002015483101561094157600360008b81526020019081526020016000206008018381548110151561086257fe5b906000526020600020900160009054906101000a900473ffffffffffffffffffffffffffffffffffffffff1673ffffffffffffffffffffffffffffffffffffffff166108fc600360008d815260200190815260200160002060030154600360008e815260200190815260200160002060050154600360008f8152602001908152602001600020600901878154811015156108f857fe5b9060005260206000209001540281151561090e57fe5b049081150290604051600060405180830381858888f19350505050151561093457600080fd5b8280600101935050610821565b610bf0565b60009150600092505b6001600360008c81526020019081526020016000206002015403831015610aaa57600360008b815260200190815260200160002060030154600360008c815260200190815260200160002060050154600360008d8152602001908152602001600020600901858154811015156109c157fe5b906000526020600020900154028115156109d757fe5b049050600360008b8152602001908152602001600020600801838154811015156109fd57fe5b906000526020600020900160009054906101000a900473ffffffffffffffffffffffffffffffffffffffff1673ffffffffffffffffffffffffffffffffffffffff166108fc600360008d815260200190815260200160002060090185815481101515610a6557fe5b90600052602060002090015483019081150290604051600060405180830381858888f193505050501515610a9857600080fd5b8082019150828060010193505061094f565b600360008b815260200190815260200160002060030154600360008c815260200190815260200160002060050154600360008d815260200190815260200160002060090185815481101515610afb57fe5b90600052602060002090015402811515610b1157fe5b0490508082019150600360008b815260200190815260200160002060080183815481101515610b3c57fe5b906000526020600020900160009054906101000a900473ffffffffffffffffffffffffffffffffffffffff1673ffffffffffffffffffffffffffffffffffffffff166108fc600360008d815260200190815260200160002060090185815481101515610ba457fe5b90600052602060002090015484600360008f81526020019081526020016000206005015403019081150290604051600060405180830381858888f193505050501515610bef57600080fd5b5b6001600360008c815260200190815260200160002060070160016101000a81548160ff02191690831515021790555050505050505050505050565b610c336143c2565b60036000838152602001908152602001600020600801805480602002602001604051908101604052809291908181526020018280548015610cc957602002820191906000526020600020905b8160009054906101000a900473ffffffffffffffffffffffffffffffffffffffff1673ffffffffffffffffffffffffffffffffffffffff1681526020019060010190808311610c7f575b50505050509050919050565b60003373ffffffffffffffffffffffffffffffffffffffff166003600084815260200190815260200160002060010160009054906101000a900473ffffffffffffffffffffffffffffffffffffffff1673ffffffffffffffffffffffffffffffffffffffff16141515610d4757600080fd5b600015156003600084815260200190815260200160002060070160009054906101000a900460ff161515141515610d7d57600080fd5b60016003600084815260200190815260200160002060070160016101000a81548160ff0219169083151502179055507fa18e49c197ba724ba17a696b907919f85fdba8ff4e2de233c12e8be4b909e908826040518082815260200191505060405180910390a16003600083815260200190815260200160002060010160009054906101000a900473ffffffffffffffffffffffffffffffffffffffff1673ffffffffffffffffffffffffffffffffffffffff166108fc60036000858152602001908152602001600020600501549081150290604051600060405180830381858888f193505050501515610e6f57600080fd5b600090505b6003600083815260200190815260200160002060020154811015610f5b576003600083815260200190815260200160002060080181815481101515610eb557fe5b906000526020600020900160009054906101000a900473ffffffffffffffffffffffffffffffffffffffff1673ffffffffffffffffffffffffffffffffffffffff166108fc6003600085815260200190815260200160002060090183815481101515610f1d57fe5b9060005260206000209001549081150290604051600060405180830381858888f193505050501515610f4e57600080fd5b8080600101915050610e74565b5050565b600080610f6a61439a565b610f726143ae565b600080610f7d61439a565b610f8561439a565b600080610f906143d6565b600034111515610f9f57600080fd5b7f0de2583dc1b70c4d17936f6ca4d2a07aa2aba06b76a97e60e62af286adc1cc099a507f68ba8822c94e79903406a002f4bc6a982d1b473f109debb2aa020c66f642144a995073__tlsnutils_____________________________635569909f8e8d8d6000604051602001526040518463ffffffff167c01000000000000000000000000000000000000000000000000000000000281526004018080602001848152602001838152602001828103825285818151815260200191508051906020019080838360005b83811015611082578082015181840152602081019050611067565b50505050905090810190601f1680156110af5780820380516001836020036101000a031916815260200191505b5094505050505060206040518083038186803b15156110cd57600080fd5b6102c65a03f415156110de57600080fd5b5050506040518051905015156110f357600080fd5b6110fc8d6117f6565b985061110a8961012c61191c565b809850819a50829950505050611159898960b281518110151561112957fe5b90602001906020020151602001518a60b281518110151561114657fe5b9060200190602002015160600151612893565b945061119a856040805190810160405280600181526020017f5300000000000000000000000000000000000000000000000000000000000000815250612996565b15156111a557600080fd5b6111e8898960068151811015156111b857fe5b90602001906020020151602001518a60068151811015156111d557fe5b9060200190602002015160600151612893565b93506111f384612a6f565b92506103e86001600081548092919060010191905055019150600280548060010182816112209190614457565b9160005260206000209001600084909190915055508181600001818152505033816020019073ffffffffffffffffffffffffffffffffffffffff16908173ffffffffffffffffffffffffffffffffffffffff168152505060008160400181815250508b8160600181815250506000816080018181525050348160a0018181525050828160c001818152505060008160e001901515908115158152505060008161010001901515908115158152505080600360008481526020019081526020016000206000820151816000015560208201518160010160006101000a81548173ffffffffffffffffffffffffffffffffffffffff021916908373ffffffffffffffffffffffffffffffffffffffff16021790555060408201518160020155606082015181600301556080820151816004015560a0820151816005015560c0820151816006015560e08201518160070160006101000a81548160ff0219169083151502179055506101008201518160070160016101000a81548160ff0219169083151502179055506101208201518160080190805190602001906113c3929190614483565b506101408201518160090190805190602001906113e192919061450d565b509050507fa18e49c197ba724ba17a696b907919f85fdba8ff4e2de233c12e8be4b909e908826040518082815260200191505060405180910390a150505050505050505050505050565b61143361455a565b6003600083815260200190815260200160002060090180548060200260200160405190810160405280929190818152602001828054801561149357602002820191906000526020600020905b81548152602001906001019080831161147f575b50505050509050919050565b6000341115156114ae57600080fd5b6003600082815260200190815260200160002060070160009054906101000a900460ff161515156114de57600080fd5b60036000828152602001908152602001600020600301543460036000848152602001908152602001600020600401540111156115ba573373ffffffffffffffffffffffffffffffffffffffff166108fc600360008481526020019081526020016000206003015434600360008681526020019081526020016000206004015401039081150290604051600060405180830381858888f19350505050151561158457600080fd5b600360008281526020019081526020016000206003015460036000838152602001908152602001600020600401819055506115ee565b3460036000838152602001908152602001600020600401540160036000838152602001908152602001600020600401819055505b6003600082815260200190815260200160002060030154600360008381526020019081526020016000206004015414156116525760016003600083815260200190815260200160002060070160006101000a81548160ff0219169083151502179055505b60036000828152602001908152602001600020600801805480600101828161167a919061456e565b9160005260206000209001600033909190916101000a81548173ffffffffffffffffffffffffffffffffffffffff021916908373ffffffffffffffffffffffffffffffffffffffff160217905550506003600082815260200190815260200160002060090180548060010182816116f19190614457565b91600052602060002090016000349091909150555060036000828152602001908152602001600020600201600081548092919060010191905055507fa18e49c197ba724ba17a696b907919f85fdba8ff4e2de233c12e8be4b909e908816040518082815260200191505060405180910390a150565b61176e61455a565b60028054806020026020016040519081016040528092919081815260200182805480156117ba57602002820191906000526020600020905b8154815260200190600101908083116117a6575b5050505050905090565b6000809054906101000a900473ffffffffffffffffffffffffffffffffffffffff1681565b6000600280549050905090565b6117fe61459a565b61180661459a565b61180e6145ae565b6118166145ae565b61181f85612a83565b925061183d600f61182f85612abf565b612aed90919063ffffffff16565b915061188f6118806040805190810160405280600f81526020017f485454502f312e3120323030204f4b0000000000000000000000000000000000815250612abf565b83612b1590919063ffffffff16565b151561189a57600080fd5b6118f26118db6040805190810160405280600481526020017f0d0a0d0a00000000000000000000000000000000000000000000000000000000815250612abf565b6118e485612abf565b612b2b90919063ffffffff16565b9050611908600482612b7d90919063ffffffff16565b5061191281612bd3565b9350505050919050565b60006119266143ae565b600061193061459a565b6119386145c8565b6119406143ae565b60008060008060006119506145ea565b6000808f9a5061195f8f612c31565b99509950896020015196505b8a518a6000015110156126d1578a8a6000015181518110151561198a57fe5b9060200101517f010000000000000000000000000000000000000000000000000000000000000090047f0100000000000000000000000000000000000000000000000000000000000000029450607b7f010000000000000000000000000000000000000000000000000000000000000002857effffffffffffffffffffffffffffffffffffffffffffffffffffffffffffff19161480611a6e5750605b7f010000000000000000000000000000000000000000000000000000000000000002857effffffffffffffffffffffffffffffffffffffffffffffffffffffffffffff1916145b15611bae578680600101975050611a858a8a612ce5565b93509350831515611aa35760038960008090509d509d509d506126e0565b7fffffffffffffffffffffffffffffffffffffffffffffffffffffffffffffffff8a60400151141515611b0257888a60400151815181101515611ae257fe5b9060200190602002015160a001805180919060010160ff1660ff16815250505b607b7f010000000000000000000000000000000000000000000000000000000000000002857effffffffffffffffffffffffffffffffffffffffffffffffffffffffffffff191614611b55576002611b58565b60015b83600001906004811115611b6857fe5b90816004811115611b7557fe5b815250508960000151836020018181525050600183604001901515908115158152505060018a60200151038a60400181815250506126bc565b607d7f010000000000000000000000000000000000000000000000000000000000000002857effffffffffffffffffffffffffffffffffffffffffffffffffffffffffffff19161480611c455750605d7f010000000000000000000000000000000000000000000000000000000000000002857effffffffffffffffffffffffffffffffffffffffffffffffffffffffffffff1916145b15611e8557607d7f010000000000000000000000000000000000000000000000000000000000000002857effffffffffffffffffffffffffffffffffffffffffffffffffffffffffffff191614611c9d576002611ca0565b60015b91506000905060018a602001510395505b600086101515611db4578886815181101515611cc957fe5b90602001906020020151925082604001518015611ce857508260800151155b15611da657816004811115611cf957fe5b83600001516004811115611d0957fe5b141515611d235760018960008090509d509d509d506126e0565b7fffffffffffffffffffffffffffffffffffffffffffffffffffffffffffffffff8a604001818152505060018a60000151018987815181101515611d6357fe5b90602001906020020151606001818152505060018987815181101515611d8557fe5b90602001906020020151608001901515908115158152505060019050611db4565b858060019003965050611cb1565b801515611dce5760018960008090509d509d509d506126e0565b5b6000861115611e27578886815181101515611de657fe5b90602001906020020151925082604001518015611e0557508260800151155b15611e1957858a6040018181525050611e27565b858060019003965050611dcf565b6000861415611e80578886815181101515611e3e57fe5b90602001906020020151925082604001518015611e5d57508260800151155b15611e7f57856fffffffffffffffffffffffffffffffff168a60400181815250505b5b6126bc565b7f2200000000000000000000000000000000000000000000000000000000000000857effffffffffffffffffffffffffffffffffffffffffffffffffffffffffffff19161415611f6457611eda8a8a8d612db7565b9750600088141515611ef857878960008090509d509d509d506126e0565b86806001019750507fffffffffffffffffffffffffffffffffffffffffffffffffffffffffffffffff8a60400151141515611f5f57888a60400151815181101515611f3f57fe5b9060200190602002015160a001805180919060010160ff1660ff16815250505b6126bc565b7f2000000000000000000000000000000000000000000000000000000000000000857effffffffffffffffffffffffffffffffffffffffffffffffffffffffffffff19161480611ff8575060117f010000000000000000000000000000000000000000000000000000000000000002857effffffffffffffffffffffffffffffffffffffffffffffffffffffffffffff1916145b80612047575060127f010000000000000000000000000000000000000000000000000000000000000002857effffffffffffffffffffffffffffffffffffffffffffffffffffffffffffff1916145b80612096575060147f010000000000000000000000000000000000000000000000000000000000000002857effffffffffffffffffffffffffffffffffffffffffffffffffffffffffffff1916145b156120a0576126bc565b7f3a00000000000000000000000000000000000000000000000000000000000000857effffffffffffffffffffffffffffffffffffffffffffffffffffffffffffff191614156121005760018a60200151038a60400181815250506126bc565b7f2c00000000000000000000000000000000000000000000000000000000000000857effffffffffffffffffffffffffffffffffffffffffffffffffffffffffffff191614156122f0577fffffffffffffffffffffffffffffffffffffffffffffffffffffffffffffffff8a60400151141580156121b457506002600481111561218657fe5b898b6040015181518110151561219857fe5b906020019060200201516000015160048111156121b157fe5b14155b80156121f65750600160048111156121c857fe5b898b604001518151811015156121da57fe5b906020019060200201516000015160048111156121f357fe5b14155b156122eb5760018a602001510395505b6000861015156122ea576002600481111561221d57fe5b898781518110151561222b57fe5b9060200190602002015160000151600481111561224457fe5b148061228157506001600481111561225857fe5b898781518110151561226657fe5b9060200190602002015160000151600481111561227f57fe5b145b156122dc57888681518110151561229457fe5b906020019060200201516040015180156122c7575088868151811015156122b757fe5b9060200190602002015160800151155b156122db57858a60400181815250506122ea565b5b858060019003965050612206565b5b6126bc565b7f3000000000000000000000000000000000000000000000000000000000000000857effffffffffffffffffffffffffffffffffffffffffffffffffffffffffffff19161015801561238457507f3900000000000000000000000000000000000000000000000000000000000000857effffffffffffffffffffffffffffffffffffffffffffffffffffffffffffff191611155b806123d057507f2d00000000000000000000000000000000000000000000000000000000000000857effffffffffffffffffffffffffffffffffffffffffffffffffffffffffffff1916145b8061241c57507f6600000000000000000000000000000000000000000000000000000000000000857effffffffffffffffffffffffffffffffffffffffffffffffffffffffffffff1916145b8061246857507f7400000000000000000000000000000000000000000000000000000000000000857effffffffffffffffffffffffffffffffffffffffffffffffffffffffffffff1916145b806124b457507f6e00000000000000000000000000000000000000000000000000000000000000857effffffffffffffffffffffffffffffffffffffffffffffffffffffffffffff1916145b15612609577fffffffffffffffffffffffffffffffffffffffffffffffffffffffffffffffff8a6040015114151561257457888a604001518151811015156124f857fe5b9060200190602002015192506001600481111561251157fe5b8360000151600481111561252157fe5b148061255b57506003600481111561253557fe5b8360000151600481111561254557fe5b14801561255a575060008360a0015160ff1614155b5b156125735760018960008090509d509d509d506126e0565b5b61257f8a8a8d6134ce565b975060008814151561259d57878960008090509d509d509d506126e0565b86806001019750507fffffffffffffffffffffffffffffffffffffffffffffffffffffffffffffffff8a6040015114151561260457888a604001518151811015156125e457fe5b9060200190602002015160a001805180919060010160ff1660ff16815250505b6126bc565b60207f010000000000000000000000000000000000000000000000000000000000000002857effffffffffffffffffffffffffffffffffffffffffffffffffffffffffffff1916101580156126a35750607e7f010000000000000000000000000000000000000000000000000000000000000002857effffffffffffffffffffffffffffffffffffffffffffffffffffffffffffff191611155b156126bb5760018960008090509d509d509d506126e0565b5b8960000180518091906001018152505061196b565b6000898b602001519d509d509d505b50505050505050505050509250925092565b60006126fc61439a565b60006127418585600681518110151561271157fe5b906020019060200201516020015186600681518110151561272e57fe5b9060200190602002015160600151612893565b915061274c82612a6f565b9050809250505092915050565b600061276361439a565b6127a6848460b281518110151561277657fe5b90602001906020020151602001518560b281518110151561279357fe5b9060200190602002015160600151612893565b90506127e7816040805190810160405280600181526020017f5300000000000000000000000000000000000000000000000000000000000000815250612996565b156127f5576001915061288c565b612838848460a781518110151561280857fe5b90602001906020020151602001518560a781518110151561282557fe5b9060200190602002015160600151612893565b9050612879816040805190810160405280600181526020017f4300000000000000000000000000000000000000000000000000000000000000815250612996565b15612887576002915061288c565b600391505b5092915050565b61289b61439a565b6128a361459a565b6128ab61459a565b60008692508585036040518059106128c05750595b9080825280601f01601f191660200182016040525091508590505b848110156129895782818151811015156128f157fe5b9060200101517f010000000000000000000000000000000000000000000000000000000000000090047f0100000000000000000000000000000000000000000000000000000000000000028287830381518110151561294c57fe5b9060200101907effffffffffffffffffffffffffffffffffffffffffffffffffffffffffffff1916908160001a90535080806001019150506128db565b8193505050509392505050565b6000816040518082805190602001908083835b6020831015156129ce57805182526020820191506020810190506020830392506129a9565b6001836020036101000a038019825116818451168082178552505050505050905001915050604051809103902060001916836040518082805190602001908083835b602083101515612a355780518252602082019150602081019050602083039250612a10565b6001836020036101000a03801982511681845116808217855250505050505090500191505060405180910390206000191614905092915050565b6000612a7c8260006138b0565b9050919050565b612a8b61459a565b612ab88260017f010000000000000000000000000000000000000000000000000000000000000002613c8f565b9050919050565b612ac76145ae565b600060208301905060408051908101604052808451815260200182815250915050919050565b612af56145ae565b8183600001511115612b0c57818360000181815250505b82905092915050565b600080612b2284846140bc565b14905092915050565b612b336145ae565b6000612b518460000151856020015185600001518660200151614176565b905083602001518103846000018181510391508181525050808460200181815250508391505092915050565b612b856145ae565b82600001518263ffffffff1611151515612b9e57600080fd5b8163ffffffff168360200181815101915081815250508163ffffffff1683600001818151039150818152505082905092915050565b612bdb61459a565b612be361459a565b60008360000151604051805910612bf75750595b9080825280601f01601f19166020018201604052509150602082019050612c278185602001518660000151614232565b8192505050919050565b612c396145c8565b612c416143ae565b612c496145c8565b612c516143ae565b60606040519081016040528060008152602001600081526020017fffffffffffffffffffffffffffffffffffffffffffffffffffffffffffffffff815250915084604051805910612c9f5750595b908082528060200260200182016040528015612cd557816020015b612cc2614633565b815260200190600190039081612cba5790505b5090508181935093505050915091565b6000612cef6145ea565b612cf76145ea565b83518560200151101515612d2f576000846001865103815181101515612d1957fe5b9060200190602002015180905092509250612daf565b60c06040519081016040528060006004811115612d4857fe5b81526020016000815260200160001515815260200160008152602001600015158152602001600060ff16815250905080848660200151815181101515612d8a57fe5b9060200190602002018190525084602001805180919060010181525050600181925092505b509250929050565b600080600080612dc56145ea565b87600001519350876000018051809190600101815250505b8551886000015110156134b457858860000151815181101515612dfc57fe5b9060200101517f010000000000000000000000000000000000000000000000000000000000000090047f01000000000000000000000000000000000000000000000000000000000000000292507f2200000000000000000000000000000000000000000000000000000000000000837effffffffffffffffffffffffffffffffffffffffffffffffffffffffffffff19161415612ed857612e9d8888612ce5565b91509150811515612ebb5783886000018181525050600394506134c3565b612ecf816003600187018b6000015161427d565b600094506134c3565b605c7f010000000000000000000000000000000000000000000000000000000000000002837effffffffffffffffffffffffffffffffffffffffffffffffffffffffffffff1916148015612f33575085516001896000015101105b1561349e57876000018051809190600101815250507f2200000000000000000000000000000000000000000000000000000000000000868960000151815181101515612f7b57fe5b9060200101517f010000000000000000000000000000000000000000000000000000000000000090047f0100000000000000000000000000000000000000000000000000000000000000027effffffffffffffffffffffffffffffffffffffffffffffffffffffffffffff1916148061309157507f2f0000000000000000000000000000000000000000000000000000000000000086896000015181518110151561302257fe5b9060200101517f010000000000000000000000000000000000000000000000000000000000000090047f0100000000000000000000000000000000000000000000000000000000000000027effffffffffffffffffffffffffffffffffffffffffffffffffffffffffffff1916145b8061313957507f5c000000000000000000000000000000000000000000000000000000000000008689600001518151811015156130ca57fe5b9060200101517f010000000000000000000000000000000000000000000000000000000000000090047f0100000000000000000000000000000000000000000000000000000000000000027effffffffffffffffffffffffffffffffffffffffffffffffffffffffffffff1916145b806131e157507f660000000000000000000000000000000000000000000000000000000000000086896000015181518110151561317257fe5b9060200101517f010000000000000000000000000000000000000000000000000000000000000090047f0100000000000000000000000000000000000000000000000000000000000000027effffffffffffffffffffffffffffffffffffffffffffffffffffffffffffff1916145b8061328957507f720000000000000000000000000000000000000000000000000000000000000086896000015181518110151561321a57fe5b9060200101517f010000000000000000000000000000000000000000000000000000000000000090047f0100000000000000000000000000000000000000000000000000000000000000027effffffffffffffffffffffffffffffffffffffffffffffffffffffffffffff1916145b8061333157507f6e000000000000000000000000000000000000000000000000000000000000008689600001518151811015156132c257fe5b9060200101517f010000000000000000000000000000000000000000000000000000000000000090047f0100000000000000000000000000000000000000000000000000000000000000027effffffffffffffffffffffffffffffffffffffffffffffffffffffffffffff1916145b806133d957507f620000000000000000000000000000000000000000000000000000000000000086896000015181518110151561336a57fe5b9060200101517f010000000000000000000000000000000000000000000000000000000000000090047f0100000000000000000000000000000000000000000000000000000000000000027effffffffffffffffffffffffffffffffffffffffffffffffffffffffffffff1916145b8061348157507f740000000000000000000000000000000000000000000000000000000000000086896000015181518110151561341257fe5b9060200101517f010000000000000000000000000000000000000000000000000000000000000090047f0100000000000000000000000000000000000000000000000000000000000000027effffffffffffffffffffffffffffffffffffffffffffffffffffffffffffff1916145b1561348b5761349f565b83886000018181525050600194506134c3565b5b87600001805180919060010181525050612ddd565b83886000018181525050600294505b505050509392505050565b60008060008060006134de6145ea565b60009450886000015193505b86518960000151101561383b5786896000015181518110151561350957fe5b9060200101517f010000000000000000000000000000000000000000000000000000000000000090047f01000000000000000000000000000000000000000000000000000000000000000292507f2000000000000000000000000000000000000000000000000000000000000000837effffffffffffffffffffffffffffffffffffffffffffffffffffffffffffff191614806135e757507f0900000000000000000000000000000000000000000000000000000000000000837effffffffffffffffffffffffffffffffffffffffffffffffffffffffffffff1916145b8061363357507f0a00000000000000000000000000000000000000000000000000000000000000837effffffffffffffffffffffffffffffffffffffffffffffffffffffffffffff1916145b8061367f57507f0d00000000000000000000000000000000000000000000000000000000000000837effffffffffffffffffffffffffffffffffffffffffffffffffffffffffffff1916145b806136cb57507f2c00000000000000000000000000000000000000000000000000000000000000837effffffffffffffffffffffffffffffffffffffffffffffffffffffffffffff1916145b8061371a5750607d7f010000000000000000000000000000000000000000000000000000000000000002837effffffffffffffffffffffffffffffffffffffffffffffffffffffffffffff1916145b806137695750605d7f010000000000000000000000000000000000000000000000000000000000000002837effffffffffffffffffffffffffffffffffffffffffffffffffffffffffffff1916145b15613777576001945061383b565b60207f010000000000000000000000000000000000000000000000000000000000000002837effffffffffffffffffffffffffffffffffffffffffffffffffffffffffffff1916108061380e5750607f7f010000000000000000000000000000000000000000000000000000000000000002837effffffffffffffffffffffffffffffffffffffffffffffffffffffffffffff1916115b156138265783896000018181525050600195506138a4565b886000018051809190600101815250506134ea565b8415156138555783896000018181525050600295506138a4565b61385f8989612ce5565b9150915081151561387d5783896000018181525050600395506138a4565b61388e816004868c6000015161427d565b8860000180518091906001900381525050600095505b50505050509392505050565b60006138ba61459a565b600080600080879450600093506000925060009150600090505b8451811015613c435760008114801561398657507f2d00000000000000000000000000000000000000000000000000000000000000858281518110151561391757fe5b9060200101517f010000000000000000000000000000000000000000000000000000000000000090047f0100000000000000000000000000000000000000000000000000000000000000027effffffffffffffffffffffffffffffffffffffffffffffffffffffffffffff1916145b1561399057600191505b60307f01000000000000000000000000000000000000000000000000000000000000000285828151811015156139c257fe5b9060200101517f010000000000000000000000000000000000000000000000000000000000000090047f0100000000000000000000000000000000000000000000000000000000000000027effffffffffffffffffffffffffffffffffffffffffffffffffffffffffffff191610158015613ada575060397f0100000000000000000000000000000000000000000000000000000000000000028582815181101515613a6a57fe5b9060200101517f010000000000000000000000000000000000000000000000000000000000000090047f0100000000000000000000000000000000000000000000000000000000000000027effffffffffffffffffffffffffffffffffffffffffffffffffffffffffffff191611155b15613b8b578215613afd576000871415613af357613c43565b8680600190039750505b600a8402935060308582815181101515613b1357fe5b9060200101517f010000000000000000000000000000000000000000000000000000000000000090047f0100000000000000000000000000000000000000000000000000000000000000027f010000000000000000000000000000000000000000000000000000000000000090040384019350613c36565b602e7f0100000000000000000000000000000000000000000000000000000000000000028582815181101515613bbd57fe5b9060200101517f010000000000000000000000000000000000000000000000000000000000000090047f0100000000000000000000000000000000000000000000000000000000000000027effffffffffffffffffffffffffffffffffffffffffffffffffffffffffffff19161415613c3557600192505b5b80806001019150506138d4565b6000871115613c555786600a0a840293505b8115613c81577fffffffffffffffffffffffffffffffffffffffffffffffffffffffffffffffff840293505b839550505050505092915050565b613c9761459a565b613c9f61459a565b6000806000806000613caf6145ae565b602060405190810160405280600081525096506060955089601b815181101515613cd557fe5b9060200101517f010000000000000000000000000000000000000000000000000000000000000090047f0100000000000000000000000000000000000000000000000000000000000000027f01000000000000000000000000000000000000000000000000000000000000009004610100028a601a815181101515613d5657fe5b9060200101517f010000000000000000000000000000000000000000000000000000000000000090047f0100000000000000000000000000000000000000000000000000000000000000027f010000000000000000000000000000000000000000000000000000000000000090040186019550600093505b896007815181101515613ddd57fe5b9060200101517f010000000000000000000000000000000000000000000000000000000000000090047f0100000000000000000000000000000000000000000000000000000000000000027f01000000000000000000000000000000000000000000000000000000000000009004610100028a6006815181101515613e5e57fe5b9060200101517f010000000000000000000000000000000000000000000000000000000000000090047f0100000000000000000000000000000000000000000000000000000000000000027f010000000000000000000000000000000000000000000000000000000000000090040161ffff168461ffff1610156140ac57602186018a01519250826001600281101515613ef457fe5b1a7f0100000000000000000000000000000000000000000000000000000000000000027f0100000000000000000000000000000000000000000000000000000000000000900461010002836000600281101515613f4d57fe5b1a7f0100000000000000000000000000000000000000000000000000000000000000027f01000000000000000000000000000000000000000000000000000000000000009004019150896003870161ffff16815181101515613fab57fe5b9060200101517f010000000000000000000000000000000000000000000000000000000000000090047f0100000000000000000000000000000000000000000000000000000000000000029450600486019550887effffffffffffffffffffffffffffffffffffffffffffffffffffffffffffff1916857effffffffffffffffffffffffffffffffffffffffffffffffffffffffffffff19161415614097576140778261ffff166140698861ffff168d6142ee90919063ffffffff16565b612aed90919063ffffffff16565b90506140948161408689612abf565b61431c90919063ffffffff16565b96505b60108201860195508380600101945050613dce565b8697505050505050505092915050565b60008060008060008060008060008a6000015197508a600001518a6000015110156140e957896000015197505b8a60200151965089602001519550600094505b8785101561415a578651935085519250828414151561414357600185896020030160080260020a0319915081831682851603905060008114151561414257809850614168565b5b6020870196506020860195506020850194506140fc565b89600001518b600001510398505b505050505050505092915050565b60008060008060008887111515614220576020871115156141d75760018760200360080260020a031980875116888b038a018a96505b8183885116146141cc576001870196508060018803106141ac578b8b0196505b505050839450614226565b8686209150879350600092505b8689038311151561421f57868420905080600019168260001916141561420c57839450614226565b60018401935082806001019350506141e4565b5b88880194505b50505050949350505050565b60005b60208210151561425a5782518452602084019350602083019250602082039150614235565b6001826020036101000a0390508019835116818551168181178652505050505050565b828460000190600481111561428e57fe5b9081600481111561429b57fe5b8152505081846020018181525050600184604001901515908115158152505080846060018181525050600184608001901515908115158152505060008460a0019060ff16908160ff168152505050505050565b6142f66145ae565b6142fe6145ae565b61430784612abf565b90506143138184612b7d565b91505092915050565b61432461459a565b61432c61459a565b600083600001518560000151016040518059106143465750595b9080825280601f01601f191660200182016040525091506020820190506143768186602001518760000151614232565b61438f8560000151820185602001518660000151614232565b819250505092915050565b602060405190810160405280600081525090565b602060405190810160405280600081525090565b602060405190810160405280600081525090565b6101606040519081016040528060008152602001600073ffffffffffffffffffffffffffffffffffffffff168152602001600081526020016000815260200160008152602001600081526020016000815260200160001515815260200160001515815260200161444461467c565b8152602001614451614690565b81525090565b81548183558181151161447e5781836000526020600020918201910161447d91906146a4565b5b505050565b8280548282559060005260206000209081019282156144fc579160200282015b828111156144fb5782518260006101000a81548173ffffffffffffffffffffffffffffffffffffffff021916908373ffffffffffffffffffffffffffffffffffffffff160217905550916020019190600101906144a3565b5b50905061450991906146c9565b5090565b828054828255906000526020600020908101928215614549579160200282015b8281111561454857825182559160200191906001019061452d565b5b50905061455691906146a4565b5090565b602060405190810160405280600081525090565b8154818355818115116145955781836000526020600020918201910161459491906146a4565b5b505050565b602060405190810160405280600081525090565b604080519081016040528060008152602001600081525090565b6060604051908101604052806000815260200160008152602001600081525090565b60c0604051908101604052806000600481111561460357fe5b81526020016000815260200160001515815260200160008152602001600015158152602001600060ff1681525090565b60c0604051908101604052806000600481111561464c57fe5b81526020016000815260200160001515815260200160008152602001600015158152602001600060ff1681525090565b602060405190810160405280600081525090565b602060405190810160405280600081525090565b6146c691905b808211156146c25760008160009055506001016146aa565b5090565b90565b61470991905b8082111561470557600081816101000a81549073ffffffffffffffffffffffffffffffffffffffff0219169055506001016146cf565b5090565b905600a165627a7a7230582056cb91b03db6850d17c67b3c876d07549a82a3379efa6b35703750821e7249380029",
  "source": "pragma solidity ^0.4.18;\nimport \"../installed_contracts/jsmnsol-lib/contracts/JsmnSolLib.sol\";\nimport \"../installed_contracts/bytesutils.sol\";\nimport \"../installed_contracts/tlsnutils.sol\";\n\ncontract Insurance {\n\n  /***********************************/\n  /******* CONTRACT ATTRIBUTES *******/\n  /***********************************/\n\n  struct InsuranceCover {\n    uint insuranceID;\n    address proposer;\n    uint numberOfProviders;\n    uint totalCoverAmount;\n    uint currentFundedCover;\n    uint premiumAmount;\n    int flightID;\n    bool filled;\n    bool deleted;\n    address[] contributors;\n    uint[] contributions;\n  }\n\n  address public master;\n  uint insuranceCoverCount;\n  uint[] insuranceIDs;\n  mapping(uint => InsuranceCover) public allInsuranceCovers;\n\n  /***********************************/\n  /************* MODIFIERS ***********/\n  /***********************************/\n\n\n  /***********************************/\n  /************** EVENTS *************/\n  /***********************************/\n\n  event InsuranceCoverChange(uint insuranceID);\n  event Status(uint status);\n  /***********************************/\n  /********* PUBLIC FUNCTIONS ********/\n  /***********************************/\n\n  /// @dev      Insurance contract constructor sets initial insurance cover count to 0\n  function Insurance() public {\n    master = msg.sender;\n    insuranceCoverCount = 0;\n  }\n\n  /// @dev                        Allows a user to propose an insurance contract\n  /// @param  _hex_proof          The hexidecimal proof passing through the flight ID\n  /// @param  _totalCoverAmount   The total cover required by the user\n  function proposeInsuranceCover(bytes memory _hex_proof, uint _totalCoverAmount) public payable {\n    require(msg.value > 0);\n\n    // Verify the TLS-N Proof\n    uint256 qx = 0x0de2583dc1b70c4d17936f6ca4d2a07aa2aba06b76a97e60e62af286adc1cc09; //public key x-coordinate signer\n    uint256 qy = 0x68ba8822c94e79903406a002f4bc6a982d1b473f109debb2aa020c66f642144a; //public key y-coordinate signer\n    require(tlsnutils.verifyProof(_hex_proof, qx, qy));\n\n    // Parse the response body of the TLS-N proof\n    string memory body = string(tlsnutils.getHTTPBody(_hex_proof));\n    JsmnSolLib.Token[] memory tokens;\n    uint returnValue;\n    uint actualNum;\n    (returnValue, tokens, actualNum) = JsmnSolLib.parse(body, 300);\n\n    // Check that the flight has not already occurred\n    // Flight status has to be 'S' for 'scheduled'\n    string memory status = JsmnSolLib.getBytes(body, tokens[178].start, tokens[178].end);\n    require(compareStrings(status,'S'));\n\n    // Then get the flight ID\n    string memory flightIDString = JsmnSolLib.getBytes(body, tokens[6].start, tokens[6].end);\n    int flightID = JsmnSolLib.parseInt(flightIDString);\n\n    // Enter all flight details and create insurance contract\n    uint insuranceID = (insuranceCoverCount++)+1000;\n    insuranceIDs.push(insuranceID);\n    InsuranceCover memory newContract;\n\n    // Set all values of the new contract\n    newContract.insuranceID = insuranceID;\n    newContract.proposer = msg.sender;\n    newContract.numberOfProviders = 0;\n    newContract.totalCoverAmount = _totalCoverAmount;\n    newContract.currentFundedCover = 0;\n    newContract.premiumAmount = msg.value;\n    newContract.flightID = flightID;\n    newContract.filled = false;\n    newContract.deleted = false;\n\n    // Add this new contract to the 'database'\n    allInsuranceCovers[insuranceID] = newContract;\n    InsuranceCoverChange(insuranceID);\n  }\n\n\n  /// @dev            Allows a user to provide capital to the contract\n  /// @param  _insuranceID  The insurance ID that the user is accepting\n  function acceptContract(uint _insuranceID) public payable {\n    require(msg.value > 0);\n    require(!allInsuranceCovers[_insuranceID].filled);\n    /* require((allInsuranceCovers[_insuranceID].currentFundedCover + msg.value) <= allInsuranceCovers[_insuranceID].totalCoverAmount); */\n\n    if(allInsuranceCovers[_insuranceID].currentFundedCover + msg.value > allInsuranceCovers[_insuranceID].totalCoverAmount){\n      msg.sender.transfer(allInsuranceCovers[_insuranceID].currentFundedCover + msg.value - allInsuranceCovers[_insuranceID].totalCoverAmount);\n      allInsuranceCovers[_insuranceID].currentFundedCover = allInsuranceCovers[_insuranceID].totalCoverAmount;\n    }\n    else{\n      allInsuranceCovers[_insuranceID].currentFundedCover = allInsuranceCovers[_insuranceID].currentFundedCover + msg.value;\n    }\n\n    if (allInsuranceCovers[_insuranceID].currentFundedCover == allInsuranceCovers[_insuranceID].totalCoverAmount) {\n      allInsuranceCovers[_insuranceID].filled = true;\n    }\n\n    // Add acceptor to the contractProvider mapping\n    allInsuranceCovers[_insuranceID].contributors.push(msg.sender);\n    allInsuranceCovers[_insuranceID].contributions.push(msg.value);\n    allInsuranceCovers[_insuranceID].numberOfProviders++;\n    InsuranceCoverChange(_insuranceID);\n  }\n\n  /// @dev                    Calculates the outcome of an insurance contract\n  /// @param  _insuranceID    The insurance ID that is being used\n  /// @param  _hex_proof      The proof with the details of the flight\n  function resolveContract(uint _insuranceID, bytes memory _hex_proof) public payable {\n    // Verify the TLS-N Proof\n    require(allInsuranceCovers[_insuranceID].filled);\n    require(tlsnutils.verifyProof(_hex_proof));\n\n    // Parse the response body of the TLS-N proof\n    string memory body = string(tlsnutils.getHTTPBody(_hex_proof));\n    JsmnSolLib.Token[] memory tokens;\n    uint returnValue;\n    uint actualNum;\n    (returnValue, tokens, actualNum) = JsmnSolLib.parse(body, 500);\n\n    // First check that the flight IDs are the same\n    int temp = getFlightID(body, tokens);\n    // Add this back in once testing is finished\n    /* require(flightID == allInsuranceCovers[_insuranceID].flightID); */\n\n    // Check the status\n    temp = getStatus(body, tokens);\n    require(temp != 1);\n\n    // If the flight was cancelled pay out the funds to the proposer\n    // Also pay the premium to the contributors\n    // Flight status has to be 'C' for 'cancelled'\n\n    uint i;\n    if (temp == 2 && allInsuranceCovers[_insuranceID].filled) {\n      // the flight was cancelled\n      allInsuranceCovers[_insuranceID].proposer.transfer(allInsuranceCovers[_insuranceID].totalCoverAmount);\n      for (i=0; i< allInsuranceCovers[_insuranceID].numberOfProviders; i++) {\n        allInsuranceCovers[_insuranceID].contributors[i].transfer((allInsuranceCovers[_insuranceID].contributions[i] * allInsuranceCovers[_insuranceID].premiumAmount) / allInsuranceCovers[_insuranceID].totalCoverAmount);\n      }\n    }\n    else {\n      // the flight was not cancelled\n      uint sum = 0;\n      uint premiumPayout;\n      for (i=0; i< allInsuranceCovers[_insuranceID].numberOfProviders - 1; i++) {\n        premiumPayout = (allInsuranceCovers[_insuranceID].contributions[i] * allInsuranceCovers[_insuranceID].premiumAmount) / allInsuranceCovers[_insuranceID].totalCoverAmount;\n        allInsuranceCovers[_insuranceID].contributors[i].transfer(premiumPayout + allInsuranceCovers[_insuranceID].contributions[i]);\n        sum += premiumPayout;\n      }\n      premiumPayout = (allInsuranceCovers[_insuranceID].contributions[i] * allInsuranceCovers[_insuranceID].premiumAmount) / allInsuranceCovers[_insuranceID].totalCoverAmount;\n      sum += premiumPayout;\n      allInsuranceCovers[_insuranceID].contributors[i].transfer(allInsuranceCovers[_insuranceID].premiumAmount-sum + allInsuranceCovers[_insuranceID].contributions[i]);\n    }\n    allInsuranceCovers[_insuranceID].deleted = true;\n  }\n\n  /// @dev                    Returns the status for the cancelling contract function\n  /// @param  body            The body of the TLS-N proof\n  /// @param  tokens          Tokens from the JsmnSolLib\n  /// @return                 An integer corresponding to the status\n  function getStatus(string body, JsmnSolLib.Token[] memory tokens) private returns(int) {\n    // Flight status has to be 'C' for 'cancelled'\n    string memory status;\n    status = JsmnSolLib.getBytes(body, tokens[178].start, tokens[178].end);\n    if (compareStrings(status,'S')) return 1;\n    status = JsmnSolLib.getBytes(body, tokens[167].start, tokens[167].end);\n    if (compareStrings(status,'C')) return 2;\n    else return 3;\n  }\n\n  /// @dev                    Returns the flightID for the cancelling contract function\n  /// @param  body            The body of the TLS-N proof\n  /// @param  tokens          Tokens from the JsmnSolLib\n  /// @return                 An integer corresponding to the flight ID\n  function getFlightID(string body, JsmnSolLib.Token[] memory tokens) private returns(int) {\n    string memory flightIDString = JsmnSolLib.getBytes(body, tokens[6].start, tokens[6].end);\n    int flightID = JsmnSolLib.parseInt(flightIDString);\n    return flightID;\n  }\n\n  // @dev                   allows user to cancel a proposed insurance contract, insuranceID is deleted and\n  //                        contract funds transfered to the proposer and\n  // @param _insuranceID    The insurance ID that is being canceled\n  function cancelInsuranceContract(uint _insuranceID) public payable {\n      require(allInsuranceCovers[_insuranceID].proposer == msg.sender);\n      require(allInsuranceCovers[_insuranceID].filled == false);\n      allInsuranceCovers[_insuranceID].deleted = true;\n      InsuranceCoverChange(_insuranceID);\n      allInsuranceCovers[_insuranceID].proposer.transfer(allInsuranceCovers[_insuranceID].premiumAmount);\n      for (uint i=0; i< allInsuranceCovers[_insuranceID].numberOfProviders; i++) {\n        allInsuranceCovers[_insuranceID].contributors[i].transfer(allInsuranceCovers[_insuranceID].contributions[i]);\n      }\n  }\n\n  /// @dev                    Returns details of a specific insurance contract\n  /// @param  _insuranceID    The insurance ID that you are requesting\n  /// @return                 1. proposer address, 2. total cover amount, 3. current funded cover,\n  ///                         4. premium amount, 5. the flight ID\n  function getInsuranceContract(uint _insuranceID) public constant returns (address, uint, uint, uint, int) {\n    return  (allInsuranceCovers[_insuranceID].proposer,\n             allInsuranceCovers[_insuranceID].totalCoverAmount,\n             allInsuranceCovers[_insuranceID].currentFundedCover,\n             allInsuranceCovers[_insuranceID].premiumAmount,\n             allInsuranceCovers[_insuranceID].flightID);\n  }\n\n  /// @dev                    Returns an array of all insurance IDs\n  /// @return                 All insurance IDs that have ever been created\n  function getInsuranceContracts() public constant returns (uint[]) {\n    return insuranceIDs;\n  }\n\n  /// @dev                    Allows the requestor to see how many contracts have been created\n  /// @return                 Returns an integer of the number of contracts\n  function getNumberOfInsuranceContracts() public constant returns (uint) {\n    return insuranceIDs.length;\n  }\n\n  /***********************************/\n  /******** PRIVATE FUNCTIONS ********/\n  /***********************************/\n\n  /// @dev       Compares two strings\n  /// @param  a  The first string to be compared\n  /// @param  b  The second string to be compared\n  /// @return    Returns true if two strings are the same, false otherwise\n  function compareStrings (string a, string b) private returns (bool){\n    return keccak256(a) == keccak256(b);\n   }\n\n  function getInsuranceContributors(uint _insuranceID) public constant returns(address[]) {\n    return allInsuranceCovers[_insuranceID].contributors;\n  }\n\n  function getInsuranceContributions(uint _insuranceID) public constant returns(uint[]) {\n    return allInsuranceCovers[_insuranceID].contributions;\n  }\n}\n",
  "sourcePath": "/Users/nijatbakhshaliyev/Desktop/ins_dapp_new/Insurance-With-Smart-Contracts/contracts/Insurance.sol",
  "compiler": {
    "name": "solc",
    "version": "0.4.19+commit.c4cbbb05.Emscripten.clang"
  },
  "schemaVersion": "1.0.1",
  "updatedAt": "2018-05-14T15:43:37.844Z"
}