{
  "contractName": "Insurance",
  "abi": [
    {
      "constant": true,
      "inputs": [
        {
          "name": "",
          "type": "uint256"
        }
      ],
      "name": "allInsuranceCovers",
      "outputs": [
        {
          "name": "insuranceID",
          "type": "uint256"
        },
        {
          "name": "proposer",
          "type": "address"
        },
        {
          "name": "numberOfProviders",
          "type": "uint256"
        },
        {
          "name": "totalCoverAmount",
          "type": "uint256"
        },
        {
          "name": "currentFundedCover",
          "type": "uint256"
        },
        {
          "name": "premiumAmount",
          "type": "uint256"
        },
        {
          "name": "flightID",
          "type": "int256"
        },
        {
          "name": "filled",
          "type": "bool"
        },
        {
          "name": "deleted",
          "type": "bool"
        }
      ],
      "payable": false,
      "stateMutability": "view",
      "type": "function"
    },
    {
      "constant": true,
      "inputs": [],
      "name": "master",
      "outputs": [
        {
          "name": "",
          "type": "address"
        }
      ],
      "payable": false,
      "stateMutability": "view",
      "type": "function"
    },
    {
      "inputs": [],
      "payable": false,
      "stateMutability": "nonpayable",
      "type": "constructor"
    },
    {
      "anonymous": false,
      "inputs": [
        {
          "indexed": false,
          "name": "insuranceID",
          "type": "uint256"
        }
      ],
      "name": "InsuranceCoverChange",
      "type": "event"
    },
    {
      "constant": false,
      "inputs": [
        {
          "name": "_hex_proof",
          "type": "bytes"
        },
        {
          "name": "_totalCoverAmount",
          "type": "uint256"
        }
      ],
      "name": "proposeInsuranceCover",
      "outputs": [],
      "payable": true,
      "stateMutability": "payable",
      "type": "function"
    },
    {
      "constant": false,
      "inputs": [
        {
          "name": "_insuranceID",
          "type": "uint256"
        }
      ],
      "name": "acceptContract",
      "outputs": [],
      "payable": true,
      "stateMutability": "payable",
      "type": "function"
    },
    {
      "constant": false,
      "inputs": [
        {
          "name": "_insuranceID",
          "type": "uint256"
        },
        {
          "name": "_hex_proof",
          "type": "bytes"
        }
      ],
      "name": "resolveContract",
      "outputs": [],
      "payable": true,
      "stateMutability": "payable",
      "type": "function"
    },
    {
      "constant": false,
      "inputs": [
        {
          "name": "_insuranceID",
          "type": "uint256"
        }
      ],
      "name": "cancelInsuranceContract",
      "outputs": [],
      "payable": true,
      "stateMutability": "payable",
      "type": "function"
    },
    {
      "constant": true,
      "inputs": [
        {
          "name": "_insuranceID",
          "type": "uint256"
        }
      ],
      "name": "getInsuranceContract",
      "outputs": [
        {
          "name": "",
          "type": "address"
        },
        {
          "name": "",
          "type": "uint256"
        },
        {
          "name": "",
          "type": "uint256"
        },
        {
          "name": "",
          "type": "uint256"
        },
        {
          "name": "",
          "type": "int256"
        }
      ],
      "payable": false,
      "stateMutability": "view",
      "type": "function"
    },
    {
      "constant": true,
      "inputs": [],
      "name": "getInsuranceContracts",
      "outputs": [
        {
          "name": "",
          "type": "uint256[]"
        }
      ],
      "payable": false,
      "stateMutability": "view",
      "type": "function"
    },
    {
      "constant": true,
      "inputs": [],
      "name": "getNumberOfInsuranceContracts",
      "outputs": [
        {
          "name": "",
          "type": "uint256"
        }
      ],
      "payable": false,
      "stateMutability": "view",
      "type": "function"
    }
  ],
  "bytecode": "0x6060604052341561000f57600080fd5b336000806101000a81548173ffffffffffffffffffffffffffffffffffffffff021916908373ffffffffffffffffffffffffffffffffffffffff160217905550600060018190555061448c806100666000396000f300606060405260043610610099576000357c0100000000000000000000000000000000000000000000000000000000900463ffffffff16806307d54bb01461009e57806336b49b0c1461011d57806355a8b40c146101c05780636a31a4ea1461021b5780637c6dfd93146102335780639a115c041461028e578063e33e59d8146102a6578063ee97f7f314610310578063f1d7498014610365575b600080fd5b34156100a957600080fd5b6100bf600480803590602001909190505061038e565b604051808673ffffffffffffffffffffffffffffffffffffffff1673ffffffffffffffffffffffffffffffffffffffff1681526020018581526020018481526020018381526020018281526020019550505050505060405180910390f35b341561012857600080fd5b61013e600480803590602001909190505061043c565b604051808a81526020018973ffffffffffffffffffffffffffffffffffffffff1673ffffffffffffffffffffffffffffffffffffffff1681526020018881526020018781526020018681526020018581526020018481526020018315151515815260200182151515158152602001995050505050505050505060405180910390f35b610219600480803590602001909190803590602001908201803590602001908080601f016020809104026020016040519081016040528093929190818152602001838380828437820191505050505050919050506104c4565b005b6102316004808035906020019091905050610b4e565b005b61028c600480803590602001908201803590602001908080601f01602080910402602001604051908101604052809392919081815260200183838082843782019150505050505091908035906020019091905050610ddb565b005b6102a460048080359060200190919050506112a7565b005b34156102b157600080fd5b6102b96114ce565b6040518080602001828103825283818151815260200191508051906020019060200280838360005b838110156102fc5780820151818401526020810190506102e1565b505050509050019250505060405180910390f35b341561031b57600080fd5b61032361152c565b604051808273ffffffffffffffffffffffffffffffffffffffff1673ffffffffffffffffffffffffffffffffffffffff16815260200191505060405180910390f35b341561037057600080fd5b610378611551565b6040518082815260200191505060405180910390f35b60008060008060006003600087815260200190815260200160002060010160009054906101000a900473ffffffffffffffffffffffffffffffffffffffff1660036000888152602001908152602001600020600301546003600089815260200190815260200160002060040154600360008a815260200190815260200160002060050154600360008b8152602001908152602001600020600601549450945094509450945091939590929450565b60036020528060005260406000206000915090508060000154908060010160009054906101000a900473ffffffffffffffffffffffffffffffffffffffff16908060020154908060030154908060040154908060050154908060060154908060070160009054906101000a900460ff16908060070160019054906101000a900460ff16905089565b6104cc614102565b6104d4614116565b60008060008073__tlsnutils_____________________________6355c265fe886000604051602001526040518263ffffffff167c01000000000000000000000000000000000000000000000000000000000281526004018080602001828103825283818151815260200191508051906020019080838360005b8381101561056957808201518184015260208101905061054e565b50505050905090810190601f1680156105965780820380516001836020036101000a031916815260200191505b509250505060206040518083038186803b15156105b257600080fd5b6102c65a03f415156105c357600080fd5b5050506040518051905015156105d857600080fd5b6105e18761155e565b95506105ef866101f4611684565b809550819750829650505050610605868661245a565b915061061186866124c1565b91506001821415151561062357600080fd5b60028214801561065357506003600089815260200190815260200160002060070160009054906101000a900460ff165b15610811576003600089815260200190815260200160002060010160009054906101000a900473ffffffffffffffffffffffffffffffffffffffff1673ffffffffffffffffffffffffffffffffffffffff166108fc600360008b8152602001908152602001600020600301549081150290604051600060405180830381858888f1935050505015156106e457600080fd5b600090505b6001600360008a8152602001908152602001600020600201540381101561080c57600360008981526020019081526020016000206008018181548110151561072d57fe5b906000526020600020900160009054906101000a900473ffffffffffffffffffffffffffffffffffffffff1673ffffffffffffffffffffffffffffffffffffffff166108fc600360008b815260200190815260200160002060050154600360008c815260200190815260200160002060030154600360008d8152602001908152602001600020600901858154811015156107c357fe5b9060005260206000209001548115156107d857fe5b04029081150290604051600060405180830381858888f1935050505015156107ff57600080fd5b80806001019150506106e9565b610b15565b6003600089815260200190815260200160002060070160009054906101000a900460ff1615156109bb576003600089815260200190815260200160002060010160009054906101000a900473ffffffffffffffffffffffffffffffffffffffff1673ffffffffffffffffffffffffffffffffffffffff166108fc600360008b8152602001908152602001600020600501549081150290604051600060405180830381858888f1935050505015156108c757600080fd5b600090505b6001600360008a815260200190815260200160002060020154038110156109b657600360008981526020019081526020016000206008018181548110151561091057fe5b906000526020600020900160009054906101000a900473ffffffffffffffffffffffffffffffffffffffff1673ffffffffffffffffffffffffffffffffffffffff166108fc600360008b81526020019081526020016000206009018381548110151561097857fe5b9060005260206000209001549081150290604051600060405180830381858888f1935050505015156109a957600080fd5b80806001019150506108cc565b610b14565b600090505b6001600360008a81526020019081526020016000206002015403811015610b13576003600089815260200190815260200160002060080181815481101515610a0457fe5b906000526020600020900160009054906101000a900473ffffffffffffffffffffffffffffffffffffffff1673ffffffffffffffffffffffffffffffffffffffff166108fc600360008b815260200190815260200160002060090183815481101515610a6c57fe5b906000526020600020900154600360008c815260200190815260200160002060050154600360008d815260200190815260200160002060030154600360008e815260200190815260200160002060090186815481101515610ac957fe5b906000526020600020900154811515610ade57fe5b0402019081150290604051600060405180830381858888f193505050501515610b0657600080fd5b80806001019150506109c0565b5b5b6001600360008a815260200190815260200160002060070160016101000a81548160ff0219169083151502179055505050505050505050565b60003373ffffffffffffffffffffffffffffffffffffffff166003600084815260200190815260200160002060010160009054906101000a900473ffffffffffffffffffffffffffffffffffffffff1673ffffffffffffffffffffffffffffffffffffffff16141515610bc057600080fd5b600015156003600084815260200190815260200160002060070160009054906101000a900460ff161515141515610bf657600080fd5b60016003600084815260200190815260200160002060070160016101000a81548160ff0219169083151502179055507fa18e49c197ba724ba17a696b907919f85fdba8ff4e2de233c12e8be4b909e908826040518082815260200191505060405180910390a16003600083815260200190815260200160002060010160009054906101000a900473ffffffffffffffffffffffffffffffffffffffff1673ffffffffffffffffffffffffffffffffffffffff166108fc60036000858152602001908152602001600020600501549081150290604051600060405180830381858888f193505050501515610ce857600080fd5b600090505b6001600360008481526020019081526020016000206002015403811015610dd7576003600083815260200190815260200160002060080181815481101515610d3157fe5b906000526020600020900160009054906101000a900473ffffffffffffffffffffffffffffffffffffffff1673ffffffffffffffffffffffffffffffffffffffff166108fc6003600085815260200190815260200160002060090183815481101515610d9957fe5b9060005260206000209001549081150290604051600060405180830381858888f193505050501515610dca57600080fd5b8080600101915050610ced565b5050565b600080610de6614102565b610dee614116565b600080610df9614102565b610e01614102565b600080610e0c61412a565b600034111515610e1b57600080fd5b7f0de2583dc1b70c4d17936f6ca4d2a07aa2aba06b76a97e60e62af286adc1cc099a507f68ba8822c94e79903406a002f4bc6a982d1b473f109debb2aa020c66f642144a995073__tlsnutils_____________________________635569909f8e8d8d6000604051602001526040518463ffffffff167c01000000000000000000000000000000000000000000000000000000000281526004018080602001848152602001838152602001828103825285818151815260200191508051906020019080838360005b83811015610efe578082015181840152602081019050610ee3565b50505050905090810190601f168015610f2b5780820380516001836020036101000a031916815260200191505b5094505050505060206040518083038186803b1515610f4957600080fd5b6102c65a03f41515610f5a57600080fd5b505050604051805190501515610f6f57600080fd5b610f788d61155e565b9850610f868961012c611684565b809850819a50829950505050610fd5898960b2815181101515610fa557fe5b90602001906020020151602001518a60b2815181101515610fc257fe5b90602001906020020151606001516125fb565b9450611016856040805190810160405280600181526020017f53000000000000000000000000000000000000000000000000000000000000008152506126fe565b151561102157600080fd5b6110648989600681518110151561103457fe5b90602001906020020151602001518a600681518110151561105157fe5b90602001906020020151606001516125fb565b935061106f846127d7565b92506103e860016000815480929190600101919050550191506002805480600101828161109c91906141ab565b9160005260206000209001600084909190915055508181600001818152505033816020019073ffffffffffffffffffffffffffffffffffffffff16908173ffffffffffffffffffffffffffffffffffffffff168152505060008160400181815250508b8160600181815250506000816080018181525050348160a0018181525050828160c001818152505060008160e001901515908115158152505060008161010001901515908115158152505080600360008481526020019081526020016000206000820151816000015560208201518160010160006101000a81548173ffffffffffffffffffffffffffffffffffffffff021916908373ffffffffffffffffffffffffffffffffffffffff16021790555060408201518160020155606082015181600301556080820151816004015560a0820151816005015560c0820151816006015560e08201518160070160006101000a81548160ff0219169083151502179055506101008201518160070160016101000a81548160ff02191690831515021790555061012082015181600801908051906020019061123f9291906141d7565b5061014082015181600901908051906020019061125d929190614261565b509050507fa18e49c197ba724ba17a696b907919f85fdba8ff4e2de233c12e8be4b909e908826040518082815260200191505060405180910390a150505050505050505050505050565b6000341115156112b657600080fd5b6003600082815260200190815260200160002060070160009054906101000a900460ff161515156112e657600080fd5b6003600082815260200190815260200160002060030154346003600084815260200190815260200160002060040154011115151561132357600080fd5b3460036000838152602001908152602001600020600401540160036000838152602001908152602001600020600401819055506003600082815260200190815260200160002060030154600360008381526020019081526020016000206004015414156113ba5760016003600083815260200190815260200160002060070160006101000a81548160ff0219169083151502179055505b6003600082815260200190815260200160002060080180548060010182816113e291906142ae565b9160005260206000209001600033909190916101000a81548173ffffffffffffffffffffffffffffffffffffffff021916908373ffffffffffffffffffffffffffffffffffffffff1602179055505060036000828152602001908152602001600020600901805480600101828161145991906141ab565b91600052602060002090016000349091909150555060036000828152602001908152602001600020600201600081548092919060010191905055507fa18e49c197ba724ba17a696b907919f85fdba8ff4e2de233c12e8be4b909e908816040518082815260200191505060405180910390a150565b6114d66142da565b600280548060200260200160405190810160405280929190818152602001828054801561152257602002820191906000526020600020905b81548152602001906001019080831161150e575b5050505050905090565b6000809054906101000a900473ffffffffffffffffffffffffffffffffffffffff1681565b6000600280549050905090565b6115666142ee565b61156e6142ee565b611576614302565b61157e614302565b611587856127eb565b92506115a5600f61159785612827565b61285590919063ffffffff16565b91506115f76115e86040805190810160405280600f81526020017f485454502f312e3120323030204f4b0000000000000000000000000000000000815250612827565b8361287d90919063ffffffff16565b151561160257600080fd5b61165a6116436040805190810160405280600481526020017f0d0a0d0a00000000000000000000000000000000000000000000000000000000815250612827565b61164c85612827565b61289390919063ffffffff16565b90506116706004826128e590919063ffffffff16565b5061167a8161293b565b9350505050919050565b600061168e614116565b60006116986142ee565b6116a061431c565b6116a8614116565b60008060008060006116b861433e565b6000808f9a506116c78f612999565b99509950896020015196505b8a518a600001511015612439578a8a600001518151811015156116f257fe5b9060200101517f010000000000000000000000000000000000000000000000000000000000000090047f0100000000000000000000000000000000000000000000000000000000000000029450607b7f010000000000000000000000000000000000000000000000000000000000000002857effffffffffffffffffffffffffffffffffffffffffffffffffffffffffffff191614806117d65750605b7f010000000000000000000000000000000000000000000000000000000000000002857effffffffffffffffffffffffffffffffffffffffffffffffffffffffffffff1916145b156119165786806001019750506117ed8a8a612a4d565b9350935083151561180b5760038960008090509d509d509d50612448565b7fffffffffffffffffffffffffffffffffffffffffffffffffffffffffffffffff8a6040015114151561186a57888a6040015181518110151561184a57fe5b9060200190602002015160a001805180919060010160ff1660ff16815250505b607b7f010000000000000000000000000000000000000000000000000000000000000002857effffffffffffffffffffffffffffffffffffffffffffffffffffffffffffff1916146118bd5760026118c0565b60015b836000019060048111156118d057fe5b908160048111156118dd57fe5b815250508960000151836020018181525050600183604001901515908115158152505060018a60200151038a6040018181525050612424565b607d7f010000000000000000000000000000000000000000000000000000000000000002857effffffffffffffffffffffffffffffffffffffffffffffffffffffffffffff191614806119ad5750605d7f010000000000000000000000000000000000000000000000000000000000000002857effffffffffffffffffffffffffffffffffffffffffffffffffffffffffffff1916145b15611bed57607d7f010000000000000000000000000000000000000000000000000000000000000002857effffffffffffffffffffffffffffffffffffffffffffffffffffffffffffff191614611a05576002611a08565b60015b91506000905060018a602001510395505b600086101515611b1c578886815181101515611a3157fe5b90602001906020020151925082604001518015611a5057508260800151155b15611b0e57816004811115611a6157fe5b83600001516004811115611a7157fe5b141515611a8b5760018960008090509d509d509d50612448565b7fffffffffffffffffffffffffffffffffffffffffffffffffffffffffffffffff8a604001818152505060018a60000151018987815181101515611acb57fe5b90602001906020020151606001818152505060018987815181101515611aed57fe5b90602001906020020151608001901515908115158152505060019050611b1c565b858060019003965050611a19565b801515611b365760018960008090509d509d509d50612448565b5b6000861115611b8f578886815181101515611b4e57fe5b90602001906020020151925082604001518015611b6d57508260800151155b15611b8157858a6040018181525050611b8f565b858060019003965050611b37565b6000861415611be8578886815181101515611ba657fe5b90602001906020020151925082604001518015611bc557508260800151155b15611be757856fffffffffffffffffffffffffffffffff168a60400181815250505b5b612424565b7f2200000000000000000000000000000000000000000000000000000000000000857effffffffffffffffffffffffffffffffffffffffffffffffffffffffffffff19161415611ccc57611c428a8a8d612b1f565b9750600088141515611c6057878960008090509d509d509d50612448565b86806001019750507fffffffffffffffffffffffffffffffffffffffffffffffffffffffffffffffff8a60400151141515611cc757888a60400151815181101515611ca757fe5b9060200190602002015160a001805180919060010160ff1660ff16815250505b612424565b7f2000000000000000000000000000000000000000000000000000000000000000857effffffffffffffffffffffffffffffffffffffffffffffffffffffffffffff19161480611d60575060117f010000000000000000000000000000000000000000000000000000000000000002857effffffffffffffffffffffffffffffffffffffffffffffffffffffffffffff1916145b80611daf575060127f010000000000000000000000000000000000000000000000000000000000000002857effffffffffffffffffffffffffffffffffffffffffffffffffffffffffffff1916145b80611dfe575060147f010000000000000000000000000000000000000000000000000000000000000002857effffffffffffffffffffffffffffffffffffffffffffffffffffffffffffff1916145b15611e0857612424565b7f3a00000000000000000000000000000000000000000000000000000000000000857effffffffffffffffffffffffffffffffffffffffffffffffffffffffffffff19161415611e685760018a60200151038a6040018181525050612424565b7f2c00000000000000000000000000000000000000000000000000000000000000857effffffffffffffffffffffffffffffffffffffffffffffffffffffffffffff19161415612058577fffffffffffffffffffffffffffffffffffffffffffffffffffffffffffffffff8a6040015114158015611f1c575060026004811115611eee57fe5b898b60400151815181101515611f0057fe5b90602001906020020151600001516004811115611f1957fe5b14155b8015611f5e575060016004811115611f3057fe5b898b60400151815181101515611f4257fe5b90602001906020020151600001516004811115611f5b57fe5b14155b156120535760018a602001510395505b6000861015156120525760026004811115611f8557fe5b8987815181101515611f9357fe5b90602001906020020151600001516004811115611fac57fe5b1480611fe9575060016004811115611fc057fe5b8987815181101515611fce57fe5b90602001906020020151600001516004811115611fe757fe5b145b15612044578886815181101515611ffc57fe5b9060200190602002015160400151801561202f5750888681518110151561201f57fe5b9060200190602002015160800151155b1561204357858a6040018181525050612052565b5b858060019003965050611f6e565b5b612424565b7f3000000000000000000000000000000000000000000000000000000000000000857effffffffffffffffffffffffffffffffffffffffffffffffffffffffffffff1916101580156120ec57507f3900000000000000000000000000000000000000000000000000000000000000857effffffffffffffffffffffffffffffffffffffffffffffffffffffffffffff191611155b8061213857507f2d00000000000000000000000000000000000000000000000000000000000000857effffffffffffffffffffffffffffffffffffffffffffffffffffffffffffff1916145b8061218457507f6600000000000000000000000000000000000000000000000000000000000000857effffffffffffffffffffffffffffffffffffffffffffffffffffffffffffff1916145b806121d057507f7400000000000000000000000000000000000000000000000000000000000000857effffffffffffffffffffffffffffffffffffffffffffffffffffffffffffff1916145b8061221c57507f6e00000000000000000000000000000000000000000000000000000000000000857effffffffffffffffffffffffffffffffffffffffffffffffffffffffffffff1916145b15612371577fffffffffffffffffffffffffffffffffffffffffffffffffffffffffffffffff8a604001511415156122dc57888a6040015181518110151561226057fe5b9060200190602002015192506001600481111561227957fe5b8360000151600481111561228957fe5b14806122c357506003600481111561229d57fe5b836000015160048111156122ad57fe5b1480156122c2575060008360a0015160ff1614155b5b156122db5760018960008090509d509d509d50612448565b5b6122e78a8a8d613236565b975060008814151561230557878960008090509d509d509d50612448565b86806001019750507fffffffffffffffffffffffffffffffffffffffffffffffffffffffffffffffff8a6040015114151561236c57888a6040015181518110151561234c57fe5b9060200190602002015160a001805180919060010160ff1660ff16815250505b612424565b60207f010000000000000000000000000000000000000000000000000000000000000002857effffffffffffffffffffffffffffffffffffffffffffffffffffffffffffff19161015801561240b5750607e7f010000000000000000000000000000000000000000000000000000000000000002857effffffffffffffffffffffffffffffffffffffffffffffffffffffffffffff191611155b156124235760018960008090509d509d509d50612448565b5b896000018051809190600101815250506116d3565b6000898b602001519d509d509d505b50505050505050505050509250925092565b6000612464614102565b60006124a98585600681518110151561247957fe5b906020019060200201516020015186600681518110151561249657fe5b90602001906020020151606001516125fb565b91506124b4826127d7565b9050809250505092915050565b60006124cb614102565b61250e848460b28151811015156124de57fe5b90602001906020020151602001518560b28151811015156124fb57fe5b90602001906020020151606001516125fb565b905061254f816040805190810160405280600181526020017f53000000000000000000000000000000000000000000000000000000000000008152506126fe565b1561255d57600191506125f4565b6125a0848460a781518110151561257057fe5b90602001906020020151602001518560a781518110151561258d57fe5b90602001906020020151606001516125fb565b90506125e1816040805190810160405280600181526020017f43000000000000000000000000000000000000000000000000000000000000008152506126fe565b156125ef57600291506125f4565b600391505b5092915050565b612603614102565b61260b6142ee565b6126136142ee565b60008692508585036040518059106126285750595b9080825280601f01601f191660200182016040525091508590505b848110156126f157828181518110151561265957fe5b9060200101517f010000000000000000000000000000000000000000000000000000000000000090047f010000000000000000000000000000000000000000000000000000000000000002828783038151811015156126b457fe5b9060200101907effffffffffffffffffffffffffffffffffffffffffffffffffffffffffffff1916908160001a9053508080600101915050612643565b8193505050509392505050565b6000816040518082805190602001908083835b6020831015156127365780518252602082019150602081019050602083039250612711565b6001836020036101000a038019825116818451168082178552505050505050905001915050604051809103902060001916836040518082805190602001908083835b60208310151561279d5780518252602082019150602081019050602083039250612778565b6001836020036101000a03801982511681845116808217855250505050505090500191505060405180910390206000191614905092915050565b60006127e4826000613618565b9050919050565b6127f36142ee565b6128208260017f0100000000000000000000000000000000000000000000000000000000000000026139f7565b9050919050565b61282f614302565b600060208301905060408051908101604052808451815260200182815250915050919050565b61285d614302565b818360000151111561287457818360000181815250505b82905092915050565b60008061288a8484613e24565b14905092915050565b61289b614302565b60006128b98460000151856020015185600001518660200151613ede565b905083602001518103846000018181510391508181525050808460200181815250508391505092915050565b6128ed614302565b82600001518263ffffffff161115151561290657600080fd5b8163ffffffff168360200181815101915081815250508163ffffffff1683600001818151039150818152505082905092915050565b6129436142ee565b61294b6142ee565b6000836000015160405180591061295f5750595b9080825280601f01601f1916602001820160405250915060208201905061298f8185602001518660000151613f9a565b8192505050919050565b6129a161431c565b6129a9614116565b6129b161431c565b6129b9614116565b60606040519081016040528060008152602001600081526020017fffffffffffffffffffffffffffffffffffffffffffffffffffffffffffffffff815250915084604051805910612a075750595b908082528060200260200182016040528015612a3d57816020015b612a2a614387565b815260200190600190039081612a225790505b5090508181935093505050915091565b6000612a5761433e565b612a5f61433e565b83518560200151101515612a97576000846001865103815181101515612a8157fe5b9060200190602002015180905092509250612b17565b60c06040519081016040528060006004811115612ab057fe5b81526020016000815260200160001515815260200160008152602001600015158152602001600060ff16815250905080848660200151815181101515612af257fe5b9060200190602002018190525084602001805180919060010181525050600181925092505b509250929050565b600080600080612b2d61433e565b87600001519350876000018051809190600101815250505b85518860000151101561321c57858860000151815181101515612b6457fe5b9060200101517f010000000000000000000000000000000000000000000000000000000000000090047f01000000000000000000000000000000000000000000000000000000000000000292507f2200000000000000000000000000000000000000000000000000000000000000837effffffffffffffffffffffffffffffffffffffffffffffffffffffffffffff19161415612c4057612c058888612a4d565b91509150811515612c2357838860000181815250506003945061322b565b612c37816003600187018b60000151613fe5565b6000945061322b565b605c7f010000000000000000000000000000000000000000000000000000000000000002837effffffffffffffffffffffffffffffffffffffffffffffffffffffffffffff1916148015612c9b575085516001896000015101105b1561320657876000018051809190600101815250507f2200000000000000000000000000000000000000000000000000000000000000868960000151815181101515612ce357fe5b9060200101517f010000000000000000000000000000000000000000000000000000000000000090047f0100000000000000000000000000000000000000000000000000000000000000027effffffffffffffffffffffffffffffffffffffffffffffffffffffffffffff19161480612df957507f2f00000000000000000000000000000000000000000000000000000000000000868960000151815181101515612d8a57fe5b9060200101517f010000000000000000000000000000000000000000000000000000000000000090047f0100000000000000000000000000000000000000000000000000000000000000027effffffffffffffffffffffffffffffffffffffffffffffffffffffffffffff1916145b80612ea157507f5c00000000000000000000000000000000000000000000000000000000000000868960000151815181101515612e3257fe5b9060200101517f010000000000000000000000000000000000000000000000000000000000000090047f0100000000000000000000000000000000000000000000000000000000000000027effffffffffffffffffffffffffffffffffffffffffffffffffffffffffffff1916145b80612f4957507f6600000000000000000000000000000000000000000000000000000000000000868960000151815181101515612eda57fe5b9060200101517f010000000000000000000000000000000000000000000000000000000000000090047f0100000000000000000000000000000000000000000000000000000000000000027effffffffffffffffffffffffffffffffffffffffffffffffffffffffffffff1916145b80612ff157507f7200000000000000000000000000000000000000000000000000000000000000868960000151815181101515612f8257fe5b9060200101517f010000000000000000000000000000000000000000000000000000000000000090047f0100000000000000000000000000000000000000000000000000000000000000027effffffffffffffffffffffffffffffffffffffffffffffffffffffffffffff1916145b8061309957507f6e0000000000000000000000000000000000000000000000000000000000000086896000015181518110151561302a57fe5b9060200101517f010000000000000000000000000000000000000000000000000000000000000090047f0100000000000000000000000000000000000000000000000000000000000000027effffffffffffffffffffffffffffffffffffffffffffffffffffffffffffff1916145b8061314157507f62000000000000000000000000000000000000000000000000000000000000008689600001518151811015156130d257fe5b9060200101517f010000000000000000000000000000000000000000000000000000000000000090047f0100000000000000000000000000000000000000000000000000000000000000027effffffffffffffffffffffffffffffffffffffffffffffffffffffffffffff1916145b806131e957507f740000000000000000000000000000000000000000000000000000000000000086896000015181518110151561317a57fe5b9060200101517f010000000000000000000000000000000000000000000000000000000000000090047f0100000000000000000000000000000000000000000000000000000000000000027effffffffffffffffffffffffffffffffffffffffffffffffffffffffffffff1916145b156131f357613207565b838860000181815250506001945061322b565b5b87600001805180919060010181525050612b45565b83886000018181525050600294505b505050509392505050565b600080600080600061324661433e565b60009450886000015193505b8651896000015110156135a35786896000015181518110151561327157fe5b9060200101517f010000000000000000000000000000000000000000000000000000000000000090047f01000000000000000000000000000000000000000000000000000000000000000292507f2000000000000000000000000000000000000000000000000000000000000000837effffffffffffffffffffffffffffffffffffffffffffffffffffffffffffff1916148061334f57507f0900000000000000000000000000000000000000000000000000000000000000837effffffffffffffffffffffffffffffffffffffffffffffffffffffffffffff1916145b8061339b57507f0a00000000000000000000000000000000000000000000000000000000000000837effffffffffffffffffffffffffffffffffffffffffffffffffffffffffffff1916145b806133e757507f0d00000000000000000000000000000000000000000000000000000000000000837effffffffffffffffffffffffffffffffffffffffffffffffffffffffffffff1916145b8061343357507f2c00000000000000000000000000000000000000000000000000000000000000837effffffffffffffffffffffffffffffffffffffffffffffffffffffffffffff1916145b806134825750607d7f010000000000000000000000000000000000000000000000000000000000000002837effffffffffffffffffffffffffffffffffffffffffffffffffffffffffffff1916145b806134d15750605d7f010000000000000000000000000000000000000000000000000000000000000002837effffffffffffffffffffffffffffffffffffffffffffffffffffffffffffff1916145b156134df57600194506135a3565b60207f010000000000000000000000000000000000000000000000000000000000000002837effffffffffffffffffffffffffffffffffffffffffffffffffffffffffffff191610806135765750607f7f010000000000000000000000000000000000000000000000000000000000000002837effffffffffffffffffffffffffffffffffffffffffffffffffffffffffffff1916115b1561358e57838960000181815250506001955061360c565b88600001805180919060010181525050613252565b8415156135bd57838960000181815250506002955061360c565b6135c78989612a4d565b915091508115156135e557838960000181815250506003955061360c565b6135f6816004868c60000151613fe5565b8860000180518091906001900381525050600095505b50505050509392505050565b60006136226142ee565b600080600080879450600093506000925060009150600090505b84518110156139ab576000811480156136ee57507f2d00000000000000000000000000000000000000000000000000000000000000858281518110151561367f57fe5b9060200101517f010000000000000000000000000000000000000000000000000000000000000090047f0100000000000000000000000000000000000000000000000000000000000000027effffffffffffffffffffffffffffffffffffffffffffffffffffffffffffff1916145b156136f857600191505b60307f010000000000000000000000000000000000000000000000000000000000000002858281518110151561372a57fe5b9060200101517f010000000000000000000000000000000000000000000000000000000000000090047f0100000000000000000000000000000000000000000000000000000000000000027effffffffffffffffffffffffffffffffffffffffffffffffffffffffffffff191610158015613842575060397f01000000000000000000000000000000000000000000000000000000000000000285828151811015156137d257fe5b9060200101517f010000000000000000000000000000000000000000000000000000000000000090047f0100000000000000000000000000000000000000000000000000000000000000027effffffffffffffffffffffffffffffffffffffffffffffffffffffffffffff191611155b156138f357821561386557600087141561385b576139ab565b8680600190039750505b600a840293506030858281518110151561387b57fe5b9060200101517f010000000000000000000000000000000000000000000000000000000000000090047f0100000000000000000000000000000000000000000000000000000000000000027f01000000000000000000000000000000000000000000000000000000000000009004038401935061399e565b602e7f010000000000000000000000000000000000000000000000000000000000000002858281518110151561392557fe5b9060200101517f010000000000000000000000000000000000000000000000000000000000000090047f0100000000000000000000000000000000000000000000000000000000000000027effffffffffffffffffffffffffffffffffffffffffffffffffffffffffffff1916141561399d57600192505b5b808060010191505061363c565b60008711156139bd5786600a0a840293505b81156139e9577fffffffffffffffffffffffffffffffffffffffffffffffffffffffffffffffff840293505b839550505050505092915050565b6139ff6142ee565b613a076142ee565b6000806000806000613a17614302565b602060405190810160405280600081525096506060955089601b815181101515613a3d57fe5b9060200101517f010000000000000000000000000000000000000000000000000000000000000090047f0100000000000000000000000000000000000000000000000000000000000000027f01000000000000000000000000000000000000000000000000000000000000009004610100028a601a815181101515613abe57fe5b9060200101517f010000000000000000000000000000000000000000000000000000000000000090047f0100000000000000000000000000000000000000000000000000000000000000027f010000000000000000000000000000000000000000000000000000000000000090040186019550600093505b896007815181101515613b4557fe5b9060200101517f010000000000000000000000000000000000000000000000000000000000000090047f0100000000000000000000000000000000000000000000000000000000000000027f01000000000000000000000000000000000000000000000000000000000000009004610100028a6006815181101515613bc657fe5b9060200101517f010000000000000000000000000000000000000000000000000000000000000090047f0100000000000000000000000000000000000000000000000000000000000000027f010000000000000000000000000000000000000000000000000000000000000090040161ffff168461ffff161015613e1457602186018a01519250826001600281101515613c5c57fe5b1a7f0100000000000000000000000000000000000000000000000000000000000000027f0100000000000000000000000000000000000000000000000000000000000000900461010002836000600281101515613cb557fe5b1a7f0100000000000000000000000000000000000000000000000000000000000000027f01000000000000000000000000000000000000000000000000000000000000009004019150896003870161ffff16815181101515613d1357fe5b9060200101517f010000000000000000000000000000000000000000000000000000000000000090047f0100000000000000000000000000000000000000000000000000000000000000029450600486019550887effffffffffffffffffffffffffffffffffffffffffffffffffffffffffffff1916857effffffffffffffffffffffffffffffffffffffffffffffffffffffffffffff19161415613dff57613ddf8261ffff16613dd18861ffff168d61405690919063ffffffff16565b61285590919063ffffffff16565b9050613dfc81613dee89612827565b61408490919063ffffffff16565b96505b60108201860195508380600101945050613b36565b8697505050505050505092915050565b60008060008060008060008060008a6000015197508a600001518a600001511015613e5157896000015197505b8a60200151965089602001519550600094505b87851015613ec25786519350855192508284141515613eab57600185896020030160080260020a03199150818316828516039050600081141515613eaa57809850613ed0565b5b602087019650602086019550602085019450613e64565b89600001518b600001510398505b505050505050505092915050565b60008060008060008887111515613f8857602087111515613f3f5760018760200360080260020a031980875116888b038a018a96505b818388511614613f3457600187019650806001880310613f14578b8b0196505b505050839450613f8e565b8686209150879350600092505b86890383111515613f87578684209050806000191682600019161415613f7457839450613f8e565b6001840193508280600101935050613f4c565b5b88880194505b50505050949350505050565b60005b602082101515613fc25782518452602084019350602083019250602082039150613f9d565b6001826020036101000a0390508019835116818551168181178652505050505050565b8284600001906004811115613ff657fe5b9081600481111561400357fe5b8152505081846020018181525050600184604001901515908115158152505080846060018181525050600184608001901515908115158152505060008460a0019060ff16908160ff168152505050505050565b61405e614302565b614066614302565b61406f84612827565b905061407b81846128e5565b91505092915050565b61408c6142ee565b6140946142ee565b600083600001518560000151016040518059106140ae5750595b9080825280601f01601f191660200182016040525091506020820190506140de8186602001518760000151613f9a565b6140f78560000151820185602001518660000151613f9a565b819250505092915050565b602060405190810160405280600081525090565b602060405190810160405280600081525090565b6101606040519081016040528060008152602001600073ffffffffffffffffffffffffffffffffffffffff16815260200160008152602001600081526020016000815260200160008152602001600081526020016000151581526020016000151581526020016141986143d0565b81526020016141a56143e4565b81525090565b8154818355818115116141d2578183600052602060002091820191016141d191906143f8565b5b505050565b828054828255906000526020600020908101928215614250579160200282015b8281111561424f5782518260006101000a81548173ffffffffffffffffffffffffffffffffffffffff021916908373ffffffffffffffffffffffffffffffffffffffff160217905550916020019190600101906141f7565b5b50905061425d919061441d565b5090565b82805482825590600052602060002090810192821561429d579160200282015b8281111561429c578251825591602001919060010190614281565b5b5090506142aa91906143f8565b5090565b8154818355818115116142d5578183600052602060002091820191016142d491906143f8565b5b505050565b602060405190810160405280600081525090565b602060405190810160405280600081525090565b604080519081016040528060008152602001600081525090565b6060604051908101604052806000815260200160008152602001600081525090565b60c0604051908101604052806000600481111561435757fe5b81526020016000815260200160001515815260200160008152602001600015158152602001600060ff1681525090565b60c060405190810160405280600060048111156143a057fe5b81526020016000815260200160001515815260200160008152602001600015158152602001600060ff1681525090565b602060405190810160405280600081525090565b602060405190810160405280600081525090565b61441a91905b808211156144165760008160009055506001016143fe565b5090565b90565b61445d91905b8082111561445957600081816101000a81549073ffffffffffffffffffffffffffffffffffffffff021916905550600101614423565b5090565b905600a165627a7a72305820edf47bc5cd27fe76762677d4185720ee1c0346833c4ef283fead7f320204c4e00029",
  "source": "pragma solidity ^0.4.18;\nimport \"../installed_contracts/jsmnsol-lib/contracts/JsmnSolLib.sol\";\nimport \"../installed_contracts/bytesutils.sol\";\nimport \"../installed_contracts/tlsnutils.sol\";\n\ncontract Insurance {\n\n  /***********************************/\n  /******* CONTRACT ATTRIBUTES *******/\n  /***********************************/\n\n  struct InsuranceCover {\n    uint insuranceID;\n    address proposer;\n    uint numberOfProviders;\n    uint totalCoverAmount;\n    uint currentFundedCover;\n    uint premiumAmount;\n    int flightID;\n    bool filled;\n    bool deleted;\n    address[] contributors;\n    uint[] contributions;\n  }\n\n  address public master;\n  uint insuranceCoverCount;\n  uint[] insuranceIDs;\n  mapping(uint => InsuranceCover) public allInsuranceCovers;\n\n  /***********************************/\n  /************* MODIFIERS ***********/\n  /***********************************/\n\n\n  /***********************************/\n  /************** EVENTS *************/\n  /***********************************/\n\n  event InsuranceCoverChange(uint insuranceID);\n\n  /***********************************/\n  /********* PUBLIC FUNCTIONS ********/\n  /***********************************/\n\n  /// @dev      Insurance contract constructor sets initial insurance cover count to 0\n  function Insurance() public {\n    master = msg.sender;\n    insuranceCoverCount = 0;\n  }\n\n  /// @dev                        Allows a user to propose an insurance contract\n  /// @param  _hex_proof          The hexidecimal proof passing through the flight ID\n  /// @param  _totalCoverAmount   The total cover required by the user\n  function proposeInsuranceCover(bytes memory _hex_proof, uint _totalCoverAmount) public payable {\n    require(msg.value > 0);\n\n    // Verify the TLS-N Proof\n    uint256 qx = 0x0de2583dc1b70c4d17936f6ca4d2a07aa2aba06b76a97e60e62af286adc1cc09; //public key x-coordinate signer\n    uint256 qy = 0x68ba8822c94e79903406a002f4bc6a982d1b473f109debb2aa020c66f642144a; //public key y-coordinate signer\n    require(tlsnutils.verifyProof(_hex_proof, qx, qy));\n\n    // Parse the response body of the TLS-N proof\n    string memory body = string(tlsnutils.getHTTPBody(_hex_proof));\n    JsmnSolLib.Token[] memory tokens;\n    uint returnValue;\n    uint actualNum;\n    (returnValue, tokens, actualNum) = JsmnSolLib.parse(body, 300);\n\n    // Check that the flight has not already occurred\n    // Flight status has to be 'S' for 'scheduled'\n    string memory status = JsmnSolLib.getBytes(body, tokens[178].start, tokens[178].end);\n    require(compareStrings(status,'S'));\n\n    // Then get the flight ID\n    string memory flightIDString = JsmnSolLib.getBytes(body, tokens[6].start, tokens[6].end);\n    int flightID = JsmnSolLib.parseInt(flightIDString);\n\n    // Enter all flight details and create insurance contract\n    uint insuranceID = (insuranceCoverCount++)+1000;\n    insuranceIDs.push(insuranceID);\n    InsuranceCover memory newContract;\n\n    // Set all values of the new contract\n    newContract.insuranceID = insuranceID;\n    newContract.proposer = msg.sender;\n    newContract.numberOfProviders = 0;\n    newContract.totalCoverAmount = _totalCoverAmount;\n    newContract.currentFundedCover = 0;\n    newContract.premiumAmount = msg.value;\n    newContract.flightID = flightID;\n    newContract.filled = false;\n    newContract.deleted = false;\n\n    // Add this new contract to the 'database'\n    allInsuranceCovers[insuranceID] = newContract;\n    InsuranceCoverChange(insuranceID);\n  }\n\n\n  /// @dev            Allows a user to provide capital to the contract\n  /// @param  _insuranceID  The insurance ID that the user is accepting\n  function acceptContract(uint _insuranceID) public payable {\n    require(msg.value > 0);\n    require(!allInsuranceCovers[_insuranceID].filled);\n    require((allInsuranceCovers[_insuranceID].currentFundedCover + msg.value) <= allInsuranceCovers[_insuranceID].totalCoverAmount);\n\n    allInsuranceCovers[_insuranceID].currentFundedCover = allInsuranceCovers[_insuranceID].currentFundedCover + msg.value;\n    if (allInsuranceCovers[_insuranceID].currentFundedCover == allInsuranceCovers[_insuranceID].totalCoverAmount) {\n      allInsuranceCovers[_insuranceID].filled = true;\n    }\n\n    // Add acceptor to the contractProvider mapping\n    allInsuranceCovers[_insuranceID].contributors.push(msg.sender);\n    allInsuranceCovers[_insuranceID].contributions.push(msg.value);\n    allInsuranceCovers[_insuranceID].numberOfProviders++;\n    InsuranceCoverChange(_insuranceID);\n }\n\n  /// @dev                    Calculates the outcome of an insurance contract\n  /// @param  _insuranceID    The insurance ID that is being used\n  /// @param  _hex_proof      The proof with the details of the flight\n  function resolveContract(uint _insuranceID, bytes memory _hex_proof) public payable {\n    // Verify the TLS-N Proof\n    require(tlsnutils.verifyProof(_hex_proof));\n\n    // Parse the response body of the TLS-N proof\n    string memory body = string(tlsnutils.getHTTPBody(_hex_proof));\n    JsmnSolLib.Token[] memory tokens;\n    uint returnValue;\n    uint actualNum;\n    (returnValue, tokens, actualNum) = JsmnSolLib.parse(body, 500);\n\n    // First check that the flight IDs are the same\n    int temp = getFlightID(body, tokens);\n    // Add this back in once testing is finished\n    /* require(flightID == allInsuranceCovers[_insuranceID].flightID); */\n\n    // Check the status\n    temp = getStatus(body, tokens);\n    require(temp != 1);\n\n    // If the flight was cancelled pay out the funds to the proposer\n    // Also pay the premium to the contributors\n    // Flight status has to be 'C' for 'cancelled'\n    uint i;\n    if (temp == 2 && allInsuranceCovers[_insuranceID].filled) {\n      allInsuranceCovers[_insuranceID].proposer.transfer(allInsuranceCovers[_insuranceID].totalCoverAmount);\n      for (i=0; i< allInsuranceCovers[_insuranceID].numberOfProviders -1; i++) {\n        allInsuranceCovers[_insuranceID].contributors[i].transfer((allInsuranceCovers[_insuranceID].contributions[i] / allInsuranceCovers[_insuranceID].totalCoverAmount) * allInsuranceCovers[_insuranceID].premiumAmount);\n      }\n    }\n\n    else if (!allInsuranceCovers[_insuranceID].filled) {\n      allInsuranceCovers[_insuranceID].proposer.transfer(allInsuranceCovers[_insuranceID].premiumAmount);\n      for (i=0; i< allInsuranceCovers[_insuranceID].numberOfProviders -1; i++) {\n        allInsuranceCovers[_insuranceID].contributors[i].transfer(allInsuranceCovers[_insuranceID].contributions[i]);\n      }\n    }\n\n    else {\n      for (i=0; i< allInsuranceCovers[_insuranceID].numberOfProviders -1; i++) {\n        allInsuranceCovers[_insuranceID].contributors[i].transfer(((allInsuranceCovers[_insuranceID].contributions[i] / allInsuranceCovers[_insuranceID].totalCoverAmount) * allInsuranceCovers[_insuranceID].premiumAmount) + allInsuranceCovers[_insuranceID].contributions[i]);\n      }\n    }\n    allInsuranceCovers[_insuranceID].deleted = true;\n  }\n\n  /// @dev                    Returns the status for the cancelling contract function\n  /// @param  body            The body of the TLS-N proof\n  /// @param  tokens          Tokens from the JsmnSolLib\n  /// @return                 An integer corresponding to the status\n  function getStatus(string body, JsmnSolLib.Token[] memory tokens) private returns(int) {\n    // Flight status has to be 'C' for 'cancelled'\n    string memory status;\n    status = JsmnSolLib.getBytes(body, tokens[178].start, tokens[178].end);\n    if (compareStrings(status,'S')) return 1;\n    status = JsmnSolLib.getBytes(body, tokens[167].start, tokens[167].end);\n    if (compareStrings(status,'C')) return 2;\n    else return 3;\n  }\n\n  /// @dev                    Returns the flightID for the cancelling contract function\n  /// @param  body            The body of the TLS-N proof\n  /// @param  tokens          Tokens from the JsmnSolLib\n  /// @return                 An integer corresponding to the flight ID\n  function getFlightID(string body, JsmnSolLib.Token[] memory tokens) private returns(int) {\n    string memory flightIDString = JsmnSolLib.getBytes(body, tokens[6].start, tokens[6].end);\n    int flightID = JsmnSolLib.parseInt(flightIDString);\n    return flightID;\n  }\n\n  // @dev                   allows user to cancel a proposed insurance contract, insuranceID is deleted and\n  //                        contract funds transfered to the proposer and\n  // @param _insuranceID    The insurance ID that is being canceled\n  function cancelInsuranceContract(uint _insuranceID) public payable {\n      require(allInsuranceCovers[_insuranceID].proposer == msg.sender);\n      require(allInsuranceCovers[_insuranceID].filled == false);\n      allInsuranceCovers[_insuranceID].deleted = true;\n      InsuranceCoverChange(_insuranceID);\n      allInsuranceCovers[_insuranceID].proposer.transfer(allInsuranceCovers[_insuranceID].premiumAmount);\n      for (uint i=0; i< allInsuranceCovers[_insuranceID].numberOfProviders -1; i++) {\n        allInsuranceCovers[_insuranceID].contributors[i].transfer(allInsuranceCovers[_insuranceID].contributions[i]);\n      }\n  }\n\n /// @dev                    Returns details of a specific insurance contract\n /// @param  _insuranceID    The insurance ID that you are requesting\n /// @return                 1. proposer address, 2. total cover amount, 3. current funded cover,\n ///                         4. premium amount, 5. the flight ID\n function getInsuranceContract(uint _insuranceID) public constant returns (address, uint, uint, uint, int) {\n  return  (allInsuranceCovers[_insuranceID].proposer,\n           allInsuranceCovers[_insuranceID].totalCoverAmount,\n           allInsuranceCovers[_insuranceID].currentFundedCover,\n           allInsuranceCovers[_insuranceID].premiumAmount,\n           allInsuranceCovers[_insuranceID].flightID);\n }\n\n  /// @dev                    Returns an array of all insurance IDs\n  /// @return                 All insurance IDs that have ever been created\n  function getInsuranceContracts() public constant returns (uint[]) {\n    return insuranceIDs;\n  }\n\n  /// @dev                    Allows the requestor to see how many contracts have been created\n  /// @return                 Returns an integer of the number of contracts\n  function getNumberOfInsuranceContracts() public constant returns (uint) {\n    return insuranceIDs.length;\n  }\n\n  /***********************************/\n  /******** PRIVATE FUNCTIONS ********/\n  /***********************************/\n\n  /// @dev       Compares two strings\n  /// @param  a  The first string to be compared\n  /// @param  b  The second string to be compared\n  /// @return    Returns true if two strings are the same, false otherwise\n  function compareStrings (string a, string b) private returns (bool){\n    return keccak256(a) == keccak256(b);\n   }\n\n}\n",
  "sourcePath": "/home/vincent/Documents/imperial/group project/Insurance-With-Smart-Contracts/contracts/Insurance.sol",
  "compiler": {
    "name": "solc",
    "version": "0.4.19+commit.c4cbbb05.Emscripten.clang"
  },
  "schemaVersion": "1.0.1",
  "updatedAt": "2018-04-09T14:46:55.764Z"
}